{
  "_format": "hh-sol-artifact-1",
  "contractName": "VehicleRegistry",
  "sourceName": "contracts/VehicleRegistry.sol",
  "abi": [
    {
      "inputs": [],
      "stateMutability": "nonpayable",
      "type": "constructor"
    },
    {
      "inputs": [
        {
          "internalType": "address",
          "name": "owner",
          "type": "address"
        }
      ],
      "name": "OwnableInvalidOwner",
      "type": "error"
    },
    {
      "inputs": [
        {
          "internalType": "address",
          "name": "account",
          "type": "address"
        }
      ],
      "name": "OwnableUnauthorizedAccount",
      "type": "error"
    },
    {
      "anonymous": false,
      "inputs": [
        {
          "indexed": true,
          "internalType": "address",
          "name": "previousOwner",
          "type": "address"
        },
        {
          "indexed": true,
          "internalType": "address",
          "name": "newOwner",
          "type": "address"
        }
      ],
      "name": "OwnershipTransferred",
      "type": "event"
    },
    {
      "anonymous": false,
      "inputs": [
        {
          "indexed": true,
          "internalType": "bytes32",
          "name": "commitment",
          "type": "bytes32"
        },
        {
          "indexed": true,
          "internalType": "address",
          "name": "walletAddress",
          "type": "address"
        }
      ],
      "name": "VehicleDeactivated",
      "type": "event"
    },
    {
      "anonymous": false,
      "inputs": [
        {
          "indexed": true,
          "internalType": "bytes32",
          "name": "commitment",
          "type": "bytes32"
        },
        {
          "indexed": true,
          "internalType": "address",
          "name": "walletAddress",
          "type": "address"
        },
        {
          "indexed": false,
          "internalType": "uint256",
          "name": "timestamp",
          "type": "uint256"
        }
      ],
      "name": "VehicleRegistered",
      "type": "event"
    },
    {
      "anonymous": false,
      "inputs": [
        {
          "indexed": true,
          "internalType": "bytes32",
          "name": "oldCommitment",
          "type": "bytes32"
        },
        {
          "indexed": true,
          "internalType": "bytes32",
          "name": "newCommitment",
          "type": "bytes32"
        },
        {
          "indexed": true,
          "internalType": "address",
          "name": "walletAddress",
          "type": "address"
        }
      ],
      "name": "VehicleUpdated",
      "type": "event"
    },
    {
      "anonymous": false,
      "inputs": [
        {
          "indexed": true,
          "internalType": "address",
          "name": "verifier",
          "type": "address"
        },
        {
          "indexed": false,
          "internalType": "bool",
          "name": "authorized",
          "type": "bool"
        }
      ],
      "name": "VerifierAuthorized",
      "type": "event"
    },
    {
      "inputs": [
        {
          "internalType": "address",
          "name": "",
          "type": "address"
        }
      ],
      "name": "authorizedVerifiers",
      "outputs": [
        {
          "internalType": "bool",
          "name": "",
          "type": "bool"
        }
      ],
      "stateMutability": "view",
      "type": "function"
    },
    {
      "inputs": [
        {
          "internalType": "bytes32",
          "name": "commitment",
          "type": "bytes32"
        }
      ],
      "name": "deactivateVehicle",
      "outputs": [],
      "stateMutability": "nonpayable",
      "type": "function"
    },
    {
      "inputs": [
        {
          "internalType": "address",
          "name": "walletAddress",
          "type": "address"
        }
      ],
      "name": "getCommitmentByWallet",
      "outputs": [
        {
          "internalType": "bytes32",
          "name": "commitment",
          "type": "bytes32"
        }
      ],
      "stateMutability": "view",
      "type": "function"
    },
    {
      "inputs": [
        {
          "internalType": "bytes32",
          "name": "commitment",
          "type": "bytes32"
        }
      ],
      "name": "getVehicleRecord",
      "outputs": [
        {
          "components": [
            {
              "internalType": "bytes32",
              "name": "commitment",
              "type": "bytes32"
            },
            {
              "internalType": "address",
              "name": "walletAddress",
              "type": "address"
            },
            {
              "internalType": "uint256",
              "name": "registeredAt",
              "type": "uint256"
            },
            {
              "internalType": "bool",
              "name": "isActive",
              "type": "bool"
            },
            {
              "internalType": "bytes32",
              "name": "metadataHash",
              "type": "bytes32"
            }
          ],
          "internalType": "struct VehicleRegistry.VehicleRecord",
          "name": "record",
          "type": "tuple"
        }
      ],
      "stateMutability": "view",
      "type": "function"
    },
    {
      "inputs": [],
      "name": "owner",
      "outputs": [
        {
          "internalType": "address",
          "name": "",
          "type": "address"
        }
      ],
      "stateMutability": "view",
      "type": "function"
    },
    {
      "inputs": [
        {
          "internalType": "bytes32",
          "name": "commitment",
          "type": "bytes32"
        },
        {
          "internalType": "address",
          "name": "walletAddress",
          "type": "address"
        },
        {
          "internalType": "bytes32",
          "name": "metadataHash",
          "type": "bytes32"
        }
      ],
      "name": "registerVehicle",
      "outputs": [],
      "stateMutability": "nonpayable",
      "type": "function"
    },
    {
      "inputs": [
        {
          "internalType": "bytes32[]",
          "name": "commitments",
          "type": "bytes32[]"
        },
        {
          "internalType": "address[]",
          "name": "walletAddresses",
          "type": "address[]"
        },
        {
          "internalType": "bytes32[]",
          "name": "metadataHashes",
          "type": "bytes32[]"
        }
      ],
      "name": "registerVehicleBatch",
      "outputs": [],
      "stateMutability": "nonpayable",
      "type": "function"
    },
    {
      "inputs": [],
      "name": "renounceOwnership",
      "outputs": [],
      "stateMutability": "nonpayable",
      "type": "function"
    },
    {
      "inputs": [
        {
          "internalType": "address",
          "name": "verifier",
          "type": "address"
        },
        {
          "internalType": "bool",
          "name": "authorized",
          "type": "bool"
        }
      ],
      "name": "setVerifierAuthorization",
      "outputs": [],
      "stateMutability": "nonpayable",
      "type": "function"
    },
    {
      "inputs": [
        {
          "internalType": "address",
          "name": "newOwner",
          "type": "address"
        }
      ],
      "name": "transferOwnership",
      "outputs": [],
      "stateMutability": "nonpayable",
      "type": "function"
    },
    {
      "inputs": [
        {
          "internalType": "bytes32",
          "name": "commitment",
          "type": "bytes32"
        },
        {
          "internalType": "bytes32",
          "name": "newMetadataHash",
          "type": "bytes32"
        }
      ],
      "name": "updateMetadata",
      "outputs": [],
      "stateMutability": "nonpayable",
      "type": "function"
    },
    {
      "inputs": [
        {
          "internalType": "bytes32",
          "name": "oldCommitment",
          "type": "bytes32"
        },
        {
          "internalType": "bytes32",
          "name": "newCommitment",
          "type": "bytes32"
        }
      ],
      "name": "updateVehicleCommitment",
      "outputs": [],
      "stateMutability": "nonpayable",
      "type": "function"
    },
    {
      "inputs": [
        {
          "internalType": "bytes32",
          "name": "",
          "type": "bytes32"
        }
      ],
      "name": "vehicles",
      "outputs": [
        {
          "internalType": "bytes32",
          "name": "commitment",
          "type": "bytes32"
        },
        {
          "internalType": "address",
          "name": "walletAddress",
          "type": "address"
        },
        {
          "internalType": "uint256",
          "name": "registeredAt",
          "type": "uint256"
        },
        {
          "internalType": "bool",
          "name": "isActive",
          "type": "bool"
        },
        {
          "internalType": "bytes32",
          "name": "metadataHash",
          "type": "bytes32"
        }
      ],
      "stateMutability": "view",
      "type": "function"
    },
    {
      "inputs": [
        {
          "internalType": "bytes32",
          "name": "commitment",
          "type": "bytes32"
        },
        {
          "internalType": "address",
          "name": "walletAddress",
          "type": "address"
        }
      ],
      "name": "verifyOwnership",
      "outputs": [
        {
          "internalType": "bool",
          "name": "isValid",
          "type": "bool"
        }
      ],
      "stateMutability": "view",
      "type": "function"
    },
    {
      "inputs": [
        {
          "internalType": "bytes32",
          "name": "commitment",
          "type": "bytes32"
        }
      ],
      "name": "verifyVehicleRegistration",
      "outputs": [
        {
          "internalType": "bool",
          "name": "isRegistered",
          "type": "bool"
        }
      ],
      "stateMutability": "view",
      "type": "function"
    },
    {
      "inputs": [
        {
          "internalType": "address",
          "name": "",
          "type": "address"
        }
      ],
      "name": "walletToVehicle",
      "outputs": [
        {
          "internalType": "bytes32",
          "name": "",
          "type": "bytes32"
        }
      ],
      "stateMutability": "view",
      "type": "function"
    }
  ],
  "bytecode": "0x60806040523461002757610011610037565b61001961002c565b61223c610211823961223c90f35b610032565b60405190565b600080fd5b610040336100aa565b565b90565b60018060a01b031690565b90565b61006761006261006c92610042565b610050565b610045565b90565b61007890610053565b90565b61008490610045565b90565b6100909061007b565b9052565b91906100a890600060208501940190610087565b565b806100c66100c06100bb600061006f565b61007b565b9161007b565b146100d6576100d4906101af565b565b6100fb6100e3600061006f565b6000918291631e4fbdf760e01b835260048301610094565b0390fd5b60001c90565b60018060a01b031690565b61011c610121916100ff565b610105565b90565b61012e9054610110565b90565b60001b90565b9061014860018060a01b0391610131565b9181191691161790565b61016661016161016b92610045565b610050565b610045565b90565b61017790610152565b90565b6101839061016e565b90565b90565b9061019e6101996101a59261017a565b610186565b8254610137565b9055565b60000190565b6101b96000610124565b6101c4826000610189565b906101f86101f27f8be0079c531659141344cd1fd0a4f28419497f9722a3daafe3b4186f6b6457e09361017a565b9161017a565b9161020161002c565b8061020b816101a9565b0390a356fe60806040526004361015610013575b610aaa565b61001e60003561011d565b806308063e6e1461011857806331406d9714610113578063405a37581461010e578063475436a2146101095780634d41f49b14610104578063715018a6146100ff5780638da5cb5b146100fa57806393b93d36146100f55780639a891716146100f0578063a4bb29f3146100eb578063a80f5d7a146100e6578063bed15621146100e1578063cf8b18c8146100dc578063e670b51e146100d7578063f2fde38b146100d25763fab97aac0361000e57610a76565b6109f1565b6109be565b61098a565b61091a565b6108e5565b61080a565b61077d565b6106b6565b610681565b610638565b6105f2565b610575565b610392565b6102db565b610193565b60e01c90565b60405190565b600080fd5b600080fd5b600080fd5b90565b61014481610138565b0361014b57565b600080fd5b9050359061015d8261013b565b565b9190604083820312610188578061017c6101859260008601610150565b93602001610150565b90565b61012e565b60000190565b346101c2576101ac6101a636600461015f565b90610fdf565b6101b4610123565b806101be8161018d565b0390f35b610129565b600080fd5b600080fd5b600080fd5b909182601f830112156102105781359167ffffffffffffffff831161020b57602001926020830284011161020657565b6101d1565b6101cc565b6101c7565b909182601f8301121561024f5781359167ffffffffffffffff831161024a57602001926020830284011161024557565b6101d1565b6101cc565b6101c7565b906060828203126102d657600082013567ffffffffffffffff81116102d1578161027f9184016101d6565b929093602082013567ffffffffffffffff81116102cc57836102a2918401610215565b929093604082013567ffffffffffffffff81116102c7576102c392016101d6565b9091565b610133565b610133565b610133565b61012e565b34610310576102fa6102ee366004610254565b94939093929192611332565b610302610123565b8061030c8161018d565b0390f35b610129565b60018060a01b031690565b61032990610315565b90565b61033581610320565b0361033c57565b600080fd5b9050359061034e8261032c565b565b9060208282031261036a5761036791600001610341565b90565b61012e565b61037890610138565b9052565b91906103909060006020850194019061036f565b565b346103c2576103be6103ad6103a8366004610350565b611537565b6103b5610123565b9182918261037c565b0390f35b610129565b906020828203126103e1576103de91600001610150565b90565b61012e565b6103ef90610138565b90565b906103fc906103e6565b600052602052604060002090565b60001c90565b90565b61041f6104249161040a565b610410565b90565b6104319054610413565b90565b60018060a01b031690565b61044b6104509161040a565b610434565b90565b61045d905461043f565b90565b90565b61046f6104749161040a565b610460565b90565b6104819054610463565b90565b60ff1690565b61049661049b9161040a565b610484565b90565b6104a8905461048a565b90565b6104b69060016103f2565b6104c260008201610427565b916104cf60018301610453565b916104dc60028201610477565b916104f560046104ee6003850161049e565b9301610427565b90565b61050190610320565b9052565b90565b61051190610505565b9052565b151590565b61052390610515565b9052565b909594926105739461056261056c9261055860809661054e60a088019c600089019061036f565b60208701906104f8565b6040850190610508565b606083019061051a565b019061036f565b565b346105a9576105a561059061058b3660046103c7565b6104ab565b9161059c959395610123565b95869586610527565b0390f35b610129565b91906040838203126105d757806105cb6105d49260008601610150565b93602001610341565b90565b61012e565b91906105f09060006020850194019061051a565b565b346106235761061f61060e6106083660046105ae565b9061171e565b610616610123565b918291826105dc565b0390f35b610129565b600091031261063357565b61012e565b3461066657610648366004610628565b610650611781565b610658610123565b806106628161018d565b0390f35b610129565b919061067f906000602085019401906104f8565b565b346106b157610691366004610628565b6106ad61069c611790565b6106a4610123565b9182918261066b565b0390f35b610129565b346106e5576106cf6106c936600461015f565b906117a6565b6106d7610123565b806106e18161018d565b0390f35b610129565b90565b6107016106fc61070692610315565b6106ea565b610315565b90565b610712906106ed565b90565b61071e90610709565b90565b9061072b90610715565b600052602052604060002090565b1c90565b61074d9060086107529302610739565b610484565b90565b90610760915461073d565b90565b61077a90610775600391600092610721565b610755565b90565b346107ad576107a9610798610793366004610350565b610763565b6107a0610123565b918291826105dc565b0390f35b610129565b906107bc90610715565b600052602052604060002090565b6107da9060086107df9302610739565b610410565b90565b906107ed91546107ca565b90565b610807906108026002916000926107b2565b6107e2565b90565b3461083a57610836610825610820366004610350565b6107f0565b61082d610123565b9182918261037c565b0390f35b610129565b61084890610138565b9052565b61085590610320565b9052565b61086290610505565b9052565b61086f90610515565b9052565b906080806108cd9361088d6000820151600086019061083f565b61089f6020820151602086019061084c565b6108b160408201516040860190610859565b6108c360608201516060860190610866565b015191019061083f565b565b91906108e390600060a08501940190610873565b565b34610915576109116109006108fb3660046103c7565b6119cd565b610908610123565b918291826108cf565b0390f35b610129565b3461094a576109466109356109303660046103c7565b611a53565b61093d610123565b918291826105dc565b0390f35b610129565b90916060828403126109855761098261096b8460008501610150565b936109798160208601610341565b93604001610150565b90565b61012e565b346109b9576109a361099d36600461094f565b91611cff565b6109ab610123565b806109b58161018d565b0390f35b610129565b346109ec576109d66109d13660046103c7565b611f92565b6109de610123565b806109e88161018d565b0390f35b610129565b34610a1f57610a09610a04366004610350565b6120c5565b610a11610123565b80610a1b8161018d565b0390f35b610129565b610a2d81610515565b03610a3457565b600080fd5b90503590610a4682610a24565b565b9190604083820312610a715780610a65610a6e9260008601610341565b93602001610a39565b90565b61012e565b34610aa557610a8f610a89366004610a48565b9061213d565b610a97610123565b80610aa18161018d565b0390f35b610129565b600080fd5b60209181520190565b60207f6572000000000000000000000000000000000000000000000000000000000000917f56656869636c6552656769737472793a206e6f742076656869636c65206f776e60008201520152565b610b136022604092610aaf565b610b1c81610ab8565b0190565b610b369060208101906000818303910152610b06565b90565b15610b4057565b610b48610123565b62461bcd60e51b815280610b5e60048201610b20565b0390fd5b60207f6976650000000000000000000000000000000000000000000000000000000000917f56656869636c6552656769737472793a2076656869636c65206e6f742061637460008201520152565b610bbd6023604092610aaf565b610bc681610b62565b0190565b610be09060208101906000818303910152610bb0565b90565b15610bea57565b610bf2610123565b62461bcd60e51b815280610c0860048201610bca565b0390fd5b90565b60001b90565b610c29610c24610c2e92610c0c565b610c0f565b610138565b90565b60207f616c726561647920657869737473000000000000000000000000000000000000917f56656869636c6552656769737472793a206e657720636f6d6d69746d656e742060008201520152565b610c8c602e604092610aaf565b610c9581610c31565b0190565b610caf9060208101906000818303910152610c7f565b90565b15610cb957565b610cc1610123565b62461bcd60e51b815280610cd760048201610c99565b0390fd5b90610ce590610138565b9052565b90610cf390610320565b9052565b90610d0190610505565b9052565b90610d0f90610515565b9052565b601f801991011690565b634e487b7160e01b600052604160045260246000fd5b90610d3d90610d13565b810190811067ffffffffffffffff821117610d5757604052565b610d1d565b90610d6f610d68610123565b9283610d33565b565b610d7b60a0610d5c565b90565b90610dff610df66004610d8f610d71565b94610da8610d9f60008301610427565b60008801610cdb565b610dc0610db760018301610453565b60208801610ce9565b610dd8610dcf60028301610477565b60408801610cf7565b610df0610de76003830161049e565b60608801610d05565b01610427565b60808401610cdb565b565b610e0a90610d7e565b90565b610e179051610505565b90565b610e249051610138565b90565b610e3160a0610d5c565b90565b90610e4160001991610c0f565b9181191691161790565b610e549061040a565b90565b90610e6c610e67610e73926103e6565b610e4b565b8254610e34565b9055565b610e819051610320565b90565b90610e9560018060a01b0391610c0f565b9181191691161790565b90565b90610eb7610eb2610ebe92610715565b610e9f565b8254610e84565b9055565b610ed6610ed1610edb92610505565b6106ea565b610505565b90565b90565b90610ef6610ef1610efd92610ec2565b610ede565b8254610e34565b9055565b610f0b9051610515565b90565b90610f1a60ff91610c0f565b9181191691161790565b610f2d90610515565b90565b90565b90610f48610f43610f4f92610f24565b610f30565b8254610f0e565b9055565b90610fcb60806004610fd194610f7860008201610f7260008801610e1a565b90610e57565b610f9160018201610f8b60208801610e77565b90610ea2565b610faa60028201610fa460408801610e0d565b90610ee1565b610fc360038201610fbd60608801610f01565b90610f33565b019201610e1a565b90610e57565b565b90610fdd91610f53565b565b611010610ff86001610ff28185906103f2565b01610453565b61100a61100433610320565b91610320565b14610b39565b61102f61102a6003611024600185906103f2565b0161049e565b610be3565b61106a6110496000611043600186906103f2565b01610427565b61106461105e6110596000610c15565b610138565b91610138565b14610cb2565b611080600161107a8184906103f2565b01610453565b9061110d611098611093600184906103f2565b610e01565b6110fc85916110f386916110ea6110b160408301610e0d565b6110e16110c2608060019501610e1a565b956110d86110ce610e27565b9960008b01610cdb565b60208901610ce9565b60408701610cf7565b60608501610d05565b60808301610cdb565b611108600186906103f2565b610fd3565b61112660006003611120600185906103f2565b01610f33565b61113b83611136600285906107b2565b610e57565b9161117861117261116c7fb7c612dfb59180dafcf0d77ccb716b3ad19221952c5d57d234e606554b4d6e69956103e6565b926103e6565b92610715565b92611181610123565b8061118b8161018d565b0390a4565b5090565b5090565b60207f736d617463680000000000000000000000000000000000000000000000000000917f56656869636c6552656769737472793a206172726179206c656e677468206d6960008201520152565b6111f36026604092610aaf565b6111fc81611198565b0190565b61121690602081019060008183039101526111e6565b90565b1561122057565b611228610123565b62461bcd60e51b81528061123e60048201611200565b0390fd5b61125661125161125b92610c0c565b6106ea565b610505565b90565b600161126a9101610505565b90565b61127690610709565b90565b634e487b7160e01b600052603260045260246000fd5b919081101561129f576020020190565b611279565b356112ae8161013b565b90565b91908110156112c1576020020190565b611279565b356112d08161032c565b90565b600080fd5b60e01b90565b60009103126112e957565b61012e565b60409061131861131f949695939661130e6060840198600085019061036f565b60208301906104f8565b019061036f565b565b611329610123565b3d6000823e3d90fd5b939594909192611343858490611190565b61135f611359611354878590611194565b610505565b91610505565b148061147b575b61136f90611219565b6113796000611242565b5b8061139761139161138c898890611190565b610505565b91610505565b1015611471576113a63061126d565b9063cf8b18c86113c06113bb8988859161128f565b6112a4565b6113d46113cf898786916112b1565b6112c6565b936113e96113e48d89879161128f565b6112a4565b92813b1561146c5760006114109161141b8296611404610123565b998a97889687956112d8565b8552600485016112ee565b03925af1918215611467576114359261143a575b5061125e565b61137a565b61145a9060003d8111611460575b6114528183610d33565b8101906112de565b3861142f565b503d611448565b611321565b6112d3565b5050505050509050565b5061136f61148a868590611190565b6114a66114a061149b8b8790611190565b610505565b91610505565b149050611366565b600090565b60007f56656869636c6552656769737472793a206e6f7420617574686f72697a656400910152565b6114e8601f602092610aaf565b6114f1816114b3565b0190565b61150b90602081019060008183039101526114db565b90565b1561151557565b61151d610123565b62461bcd60e51b815280611533600482016114f5565b0390fd5b61157961157e916115466114ae565b503361155a61155483610320565b91610320565b1480156115a7575b8015611581575b6115729061150e565b60026107b2565b610427565b90565b506115723361159f611599611594611790565b610320565b91610320565b149050611569565b506115bc6115b760033390610721565b61049e565b611562565b600090565b60207f7665726966696572000000000000000000000000000000000000000000000000917f56656869636c6552656769737472793a206e6f7420617574686f72697a65642060008201520152565b6116216028604092610aaf565b61162a816115c6565b0190565b6116449060208101906000818303910152611614565b90565b1561164e57565b611656610123565b62461bcd60e51b81528061166c6004820161162e565b0390fd5b9061169f929161168a61168560033390610721565b61049e565b80156116a2575b61169a90611647565b6116c8565b90565b5061169a336116c06116ba6116b5611790565b610320565b91610320565b149050611691565b919091506116f46116ee6116e860016116e28187906103f2565b01610453565b92610320565b91610320565b149081611700575b5090565b611718915061171260039160016103f2565b0161049e565b386116fc565b906117309161172b6115c1565b611670565b90565b61173b612149565b61174361176d565b565b61175961175461175e92610c0c565b6106ea565b610315565b90565b61176a90611745565b90565b61177f61177a6000611761565b612198565b565b611789611733565b565b600090565b61179861178b565b506117a36000610453565b90565b600461180761180d936117e06117c860016117c28188906103f2565b01610453565b6117da6117d433610320565b91610320565b14610b39565b6117ff6117fa60036117f4600188906103f2565b0161049e565b610be3565b9260016103f2565b01610e57565b565b600090565b600090565b600090565b600090565b61182b610d71565b906020808080808661183b61180f565b815201611846611814565b815201611851611819565b81520161185c61181e565b81520161186761180f565b81525050565b611875611823565b90565b906118a69161189161188c60033390610721565b61049e565b80156118a9575b6118a190611647565b611979565b90565b506118a1336118c76118c16118bc611790565b610320565b91610320565b149050611898565b60207f6e64000000000000000000000000000000000000000000000000000000000000917f56656869636c6552656769737472793a2076656869636c65206e6f7420666f7560008201520152565b61192a6022604092610aaf565b611933816118cf565b0190565b61194d906020810190600081830391015261191d565b90565b1561195757565b61195f610123565b62461bcd60e51b81528061197560048201611937565b0390fd5b6119ca916119c591506119be61199c6000611996600185906103f2565b01610427565b6119b76119b16119ac6000610c15565b610138565b91610138565b1415611950565b60016103f2565b610e01565b90565b6119de906119d961186d565b611878565b90565b90611a0f916119fa6119f560033390610721565b61049e565b8015611a12575b611a0a90611647565b611a38565b90565b50611a0a33611a30611a2a611a25611790565b610320565b91610320565b149050611a01565b611a4a611a50926003925060016103f2565b0161049e565b90565b611a6490611a5f6115c1565b6119e1565b90565b60207f656e740000000000000000000000000000000000000000000000000000000000917f56656869636c6552656769737472793a20696e76616c696420636f6d6d69746d60008201520152565b611ac26023604092610aaf565b611acb81611a67565b0190565b611ae59060208101906000818303910152611ab5565b90565b15611aef57565b611af7610123565b62461bcd60e51b815280611b0d60048201611acf565b0390fd5b60007f56656869636c6552656769737472793a20696e76616c69642077616c6c657400910152565b611b46601f602092610aaf565b611b4f81611b11565b0190565b611b699060208101906000818303910152611b39565b90565b15611b7357565b611b7b610123565b62461bcd60e51b815280611b9160048201611b53565b0390fd5b60207f7265640000000000000000000000000000000000000000000000000000000000917f56656869636c6552656769737472793a20616c7265616479207265676973746560008201520152565b611bf06023604092610aaf565b611bf981611b95565b0190565b611c139060208101906000818303910152611be3565b90565b15611c1d57565b611c25610123565b62461bcd60e51b815280611c3b60048201611bfd565b0390fd5b60207f6c696e6b65640000000000000000000000000000000000000000000000000000917f56656869636c6552656769737472793a2077616c6c657420616c72656164792060008201520152565b611c9a6026604092610aaf565b611ca381611c3f565b0190565b611cbd9060208101906000818303910152611c8d565b90565b15611cc757565b611ccf610123565b62461bcd60e51b815280611ce560048201611ca7565b0390fd5b9190611cfd90600060208501940190610508565b565b9091611e2390611d2b83611d24611d1e611d196000610c15565b610138565b91610138565b1415611ae8565b611d5184611d4a611d44611d3f6000611761565b610320565b91610320565b1415611b6c565b611d8c611d6b6000611d65600187906103f2565b01610427565b611d86611d80611d7b6000610c15565b610138565b91610138565b14611c16565b611dc4611da3611d9e600287906107b2565b610427565b611dbe611db8611db36000610c15565b610138565b91610138565b14611cc0565b611e128391611e098691611e0042611df760019395611dee611de4610e27565b9960008b01610cdb565b60208901610ce9565b60408701610cf7565b60608501610d05565b60808301610cdb565b611e1e600184906103f2565b610fd3565b611e3881611e33600285906107b2565b610e57565b904291611e83611e71611e6b7fef2baf146fb3b912e8cfffae8e43836edf1de29210cf6394930a86f498e161a5936103e6565b93610715565b93611e7a610123565b91829182611ce9565b0390a3565b60207f6500000000000000000000000000000000000000000000000000000000000000917f56656869636c6552656769737472793a20616c726561647920696e616374697660008201520152565b611ee36021604092610aaf565b611eec81611e88565b0190565b611f069060208101906000818303910152611ed6565b90565b15611f1057565b611f18610123565b62461bcd60e51b815280611f2e60048201611ef0565b0390fd5b1b90565b91906008611f52910291611f4c60001984611f32565b92611f32565b9181191691161790565b9190611f72611f6d611f7a936103e6565b610e4b565b908354611f36565b9055565b611f9091611f8a6114ae565b91611f5c565b565b611fc3611fab6001611fa58185906103f2565b01610453565b611fbd611fb733610320565b91610320565b14610b39565b611fe2611fdd6003611fd7600185906103f2565b0161049e565b611f09565b611ffb60006003611ff5600185906103f2565b01610f33565b612011600061200c600233906107b2565b611f7e565b3361204561203f7ff5b1ae709609f371701056d922cb9d42497aea81fe7c069fb04c315264cd2789936103e6565b91610715565b9161204e610123565b806120588161018d565b0390a3565b61206e90612069612149565b612070565b565b8061208c6120866120816000611761565b610320565b91610320565b1461209c5761209a90612198565b565b6120c16120a96000611761565b6000918291631e4fbdf760e01b83526004830161066b565b0390fd5b6120ce9061205d565b565b906120e2916120dd612149565b6120e4565b565b6120f9826120f460038490610721565b610f33565b6121386121267f549bea741606fea6131feb992ab8021bef3bb5dfc19f6d30184944614a87545992610715565b9261212f610123565b918291826105dc565b0390a2565b90612147916120d0565b565b612151611790565b61216a61216461215f6121f9565b610320565b91610320565b0361217157565b61219461217c6121f9565b600091829163118cdaa760e01b83526004830161066b565b0390fd5b6121a26000610453565b6121ad826000610ea2565b906121e16121db7f8be0079c531659141344cd1fd0a4f28419497f9722a3daafe3b4186f6b6457e093610715565b91610715565b916121ea610123565b806121f48161018d565b0390a3565b61220161178b565b50339056fea2646970667358221220c9fd438d1f20d9b64a25c020cb79507885c1dd057ee80064ddc91059d9a18ddb64736f6c634300081c0033",
  "linkReferences": {},
  "deployedLinkReferences": {}
}