{
  "_format": "hh-sol-artifact-1",
  "contractName": "LicensePlateAccountFactory",
  "sourceName": "contracts/LicensePlateAccountFactory.sol",
  "abi": [
    {
      "inputs": [
        {
          "internalType": "contract IEntryPoint",
          "name": "_entryPoint",
          "type": "address"
        }
      ],
      "stateMutability": "nonpayable",
      "type": "constructor"
    },
    {
      "inputs": [
        {
          "internalType": "address",
          "name": "owner",
          "type": "address"
        }
      ],
      "name": "OwnableInvalidOwner",
      "type": "error"
    },
    {
      "inputs": [
        {
          "internalType": "address",
          "name": "account",
          "type": "address"
        }
      ],
      "name": "OwnableUnauthorizedAccount",
      "type": "error"
    },
    {
      "anonymous": false,
      "inputs": [
        {
          "indexed": true,
          "internalType": "address",
          "name": "account",
          "type": "address"
        },
        {
          "indexed": true,
          "internalType": "address",
          "name": "owner",
          "type": "address"
        },
        {
          "indexed": true,
          "internalType": "bytes32",
          "name": "vehicleCommitment",
          "type": "bytes32"
        },
        {
          "indexed": false,
          "internalType": "uint256",
          "name": "salt",
          "type": "uint256"
        }
      ],
      "name": "AccountCreated",
      "type": "event"
    },
    {
      "anonymous": false,
      "inputs": [
        {
          "indexed": true,
          "internalType": "address",
          "name": "account",
          "type": "address"
        },
        {
          "indexed": true,
          "internalType": "address",
          "name": "owner",
          "type": "address"
        },
        {
          "indexed": true,
          "internalType": "bytes32",
          "name": "vehicleCommitment",
          "type": "bytes32"
        },
        {
          "indexed": false,
          "internalType": "uint256",
          "name": "salt",
          "type": "uint256"
        }
      ],
      "name": "AccountCreatedWithProof",
      "type": "event"
    },
    {
      "anonymous": false,
      "inputs": [
        {
          "indexed": true,
          "internalType": "address",
          "name": "previousOwner",
          "type": "address"
        },
        {
          "indexed": true,
          "internalType": "address",
          "name": "newOwner",
          "type": "address"
        }
      ],
      "name": "OwnershipTransferred",
      "type": "event"
    },
    {
      "anonymous": false,
      "inputs": [
        {
          "indexed": false,
          "internalType": "bool",
          "name": "required",
          "type": "bool"
        }
      ],
      "name": "ZKProofRequirementUpdated",
      "type": "event"
    },
    {
      "anonymous": false,
      "inputs": [
        {
          "indexed": true,
          "internalType": "address",
          "name": "oldVerifier",
          "type": "address"
        },
        {
          "indexed": true,
          "internalType": "address",
          "name": "newVerifier",
          "type": "address"
        }
      ],
      "name": "ZKVerifierUpdated",
      "type": "event"
    },
    {
      "inputs": [],
      "name": "accountImplementation",
      "outputs": [
        {
          "internalType": "contract PrivacyProtectedAccount",
          "name": "",
          "type": "address"
        }
      ],
      "stateMutability": "view",
      "type": "function"
    },
    {
      "inputs": [
        {
          "internalType": "string",
          "name": "plateNumber",
          "type": "string"
        },
        {
          "internalType": "bytes32",
          "name": "userSalt",
          "type": "bytes32"
        }
      ],
      "name": "computePlateCommitment",
      "outputs": [
        {
          "internalType": "bytes32",
          "name": "",
          "type": "bytes32"
        }
      ],
      "stateMutability": "pure",
      "type": "function"
    },
    {
      "inputs": [
        {
          "internalType": "string",
          "name": "plateNumber",
          "type": "string"
        },
        {
          "internalType": "bytes32",
          "name": "userSalt",
          "type": "bytes32"
        }
      ],
      "name": "computeVehicleCommitment",
      "outputs": [
        {
          "internalType": "bytes32",
          "name": "",
          "type": "bytes32"
        }
      ],
      "stateMutability": "pure",
      "type": "function"
    },
    {
      "inputs": [
        {
          "internalType": "address",
          "name": "owner",
          "type": "address"
        },
        {
          "internalType": "bytes32",
          "name": "vehicleCommitment",
          "type": "bytes32"
        },
        {
          "internalType": "uint256",
          "name": "salt",
          "type": "uint256"
        }
      ],
      "name": "createAccount",
      "outputs": [
        {
          "internalType": "contract PrivacyProtectedAccount",
          "name": "account",
          "type": "address"
        }
      ],
      "stateMutability": "nonpayable",
      "type": "function"
    },
    {
      "inputs": [
        {
          "internalType": "address[]",
          "name": "owners",
          "type": "address[]"
        },
        {
          "internalType": "bytes32[]",
          "name": "vehicleCommitments",
          "type": "bytes32[]"
        },
        {
          "internalType": "uint256[]",
          "name": "salts",
          "type": "uint256[]"
        }
      ],
      "name": "createAccountBatch",
      "outputs": [
        {
          "internalType": "contract PrivacyProtectedAccount[]",
          "name": "accounts",
          "type": "address[]"
        }
      ],
      "stateMutability": "nonpayable",
      "type": "function"
    },
    {
      "inputs": [
        {
          "internalType": "address",
          "name": "owner",
          "type": "address"
        },
        {
          "internalType": "bytes32",
          "name": "vehicleCommitment",
          "type": "bytes32"
        },
        {
          "internalType": "uint256",
          "name": "salt",
          "type": "uint256"
        },
        {
          "internalType": "bytes",
          "name": "proof",
          "type": "bytes"
        }
      ],
      "name": "createAccountFromPlate",
      "outputs": [
        {
          "internalType": "contract PrivacyProtectedAccount",
          "name": "account",
          "type": "address"
        }
      ],
      "stateMutability": "nonpayable",
      "type": "function"
    },
    {
      "inputs": [
        {
          "internalType": "address[]",
          "name": "owners",
          "type": "address[]"
        },
        {
          "internalType": "bytes32[]",
          "name": "vehicleCommitments",
          "type": "bytes32[]"
        },
        {
          "internalType": "uint256[]",
          "name": "salts",
          "type": "uint256[]"
        },
        {
          "internalType": "bytes[]",
          "name": "proofs",
          "type": "bytes[]"
        }
      ],
      "name": "createAccountsFromPlatesBatch",
      "outputs": [
        {
          "internalType": "contract PrivacyProtectedAccount[]",
          "name": "accounts",
          "type": "address[]"
        }
      ],
      "stateMutability": "nonpayable",
      "type": "function"
    },
    {
      "inputs": [
        {
          "internalType": "address",
          "name": "owner",
          "type": "address"
        },
        {
          "internalType": "bytes32",
          "name": "vehicleCommitment",
          "type": "bytes32"
        },
        {
          "internalType": "uint256",
          "name": "salt",
          "type": "uint256"
        }
      ],
      "name": "getAddress",
      "outputs": [
        {
          "internalType": "address",
          "name": "",
          "type": "address"
        }
      ],
      "stateMutability": "view",
      "type": "function"
    },
    {
      "inputs": [
        {
          "internalType": "address[]",
          "name": "owners",
          "type": "address[]"
        },
        {
          "internalType": "bytes32[]",
          "name": "vehicleCommitments",
          "type": "bytes32[]"
        },
        {
          "internalType": "uint256[]",
          "name": "salts",
          "type": "uint256[]"
        }
      ],
      "name": "getAddressBatch",
      "outputs": [
        {
          "internalType": "address[]",
          "name": "addresses",
          "type": "address[]"
        }
      ],
      "stateMutability": "view",
      "type": "function"
    },
    {
      "inputs": [
        {
          "internalType": "address",
          "name": "owner",
          "type": "address"
        },
        {
          "internalType": "bytes32",
          "name": "vehicleCommitment",
          "type": "bytes32"
        },
        {
          "internalType": "uint256",
          "name": "salt",
          "type": "uint256"
        }
      ],
      "name": "getAddressFromPlate",
      "outputs": [
        {
          "internalType": "address",
          "name": "",
          "type": "address"
        }
      ],
      "stateMutability": "view",
      "type": "function"
    },
    {
      "inputs": [],
      "name": "owner",
      "outputs": [
        {
          "internalType": "address",
          "name": "",
          "type": "address"
        }
      ],
      "stateMutability": "view",
      "type": "function"
    },
    {
      "inputs": [],
      "name": "renounceOwnership",
      "outputs": [],
      "stateMutability": "nonpayable",
      "type": "function"
    },
    {
      "inputs": [
        {
          "internalType": "bool",
          "name": "required",
          "type": "bool"
        }
      ],
      "name": "setZKProofRequired",
      "outputs": [],
      "stateMutability": "nonpayable",
      "type": "function"
    },
    {
      "inputs": [
        {
          "internalType": "address",
          "name": "_zkVerifier",
          "type": "address"
        }
      ],
      "name": "setZKVerifier",
      "outputs": [],
      "stateMutability": "nonpayable",
      "type": "function"
    },
    {
      "inputs": [
        {
          "internalType": "address",
          "name": "newOwner",
          "type": "address"
        }
      ],
      "name": "transferOwnership",
      "outputs": [],
      "stateMutability": "nonpayable",
      "type": "function"
    },
    {
      "inputs": [],
      "name": "zkProofRequired",
      "outputs": [
        {
          "internalType": "bool",
          "name": "",
          "type": "bool"
        }
      ],
      "stateMutability": "view",
      "type": "function"
    },
    {
      "inputs": [],
      "name": "zkVerifier",
      "outputs": [
        {
          "internalType": "address",
          "name": "",
          "type": "address"
        }
      ],
      "stateMutability": "view",
      "type": "function"
    }
  ],
  "bytecode": "0x60a0604052346100465761001961001461011d565b610191565b61002161004b565b612ed9610402823960805181818161015501528181610e6201526125cb0152612ed990f35b610051565b60405190565b600080fd5b601f801991011690565b634e487b7160e01b600052604160045260246000fd5b9061008090610056565b810190811060018060401b0382111761009857604052565b610060565b906100b06100a961004b565b9283610076565b565b600080fd5b60018060a01b031690565b6100cb906100b7565b90565b6100d7906100c2565b90565b6100e3816100ce565b036100ea57565b600080fd5b905051906100fc826100da565b565b9060208282031261011857610115916000016100ef565b90565b6100b2565b61013b615677803803806101308161009d565b9283398101906100fe565b90565b60a01b90565b9061015360ff60a01b9161013e565b9181191691161790565b151590565b61016b9061015d565b90565b90565b9061018661018161018d92610162565b61016e565b8254610144565b9055565b61019b90336101fa565b6101a760006001610171565b565b90565b90565b6101c36101be6101c8926101a9565b6101ac565b6100b7565b90565b6101d4906101af565b90565b6101e0906100c2565b9052565b91906101f8906000602085019401906101d7565b565b9061020490610259565b8061022061021a61021560006101cb565b6100c2565b916100c2565b146102305761022e906103a0565b565b61025561023d60006101cb565b6000918291631e4fbdf760e01b8352600483016101e4565b0390fd5b610262906102cc565b565b61027861027361027d926100b7565b6101ac565b6100b7565b90565b61028990610264565b90565b61029590610280565b90565b6102a19061028c565b9052565b91906102b990600060208501940190610298565b565b6102c361004b565b3d6000823e3d90fd5b6102d461004b565b9061239c820182811060018060401b038211176103135782916102fe9161239c6132db85396102a5565b03906000f0801561030e57608052565b6102bb565b610060565b60001c90565b60018060a01b031690565b61033561033a91610318565b61031e565b90565b6103479054610329565b90565b60001b90565b9061036160018060a01b039161034a565b9181191691161790565b61037490610280565b90565b90565b9061038f61038a6103969261036b565b610377565b8254610350565b9055565b60000190565b6103aa600061033d565b6103b582600061037a565b906103e96103e37f8be0079c531659141344cd1fd0a4f28419497f9722a3daafe3b4186f6b6457e09361036b565b9161036b565b916103f261004b565b806103fc8161039a565b0390a356fe60806040526004361015610013575b610ce4565b61001e60003561012d565b806311464fbe1461012857806323c0aac61461012357806337bad73d1461011e578063568a7347146101195780635dccc7e414610114578063715018a61461010f5780638da5cb5b1461010a5780638ef0352714610105578063b45f47f014610100578063c3adf1eb146100fb578063c5090346146100f6578063c5e4b590146100f1578063d6df096d146100ec578063e884cf23146100e7578063f2fde38b146100e2578063f46687af146100dd5763fe922abf0361000e57610cae565b610c78565b610c45565b610c10565b610b7c565b610afb565b610ac8565b610a76565b6109ef565b610823565b610609565b6105d6565b61059a565b61040d565b610328565b6102f2565b6101dc565b60e01c90565b60405190565b600080fd5b600080fd5b600091031261014e57565b61013e565b7f000000000000000000000000000000000000000000000000000000000000000090565b60018060a01b031690565b90565b61019961019461019e92610177565b610182565b610177565b90565b6101aa90610185565b90565b6101b6906101a1565b90565b6101c2906101ad565b9052565b91906101da906000602085019401906101b9565b565b3461020c576101ec366004610143565b6102086101f7610153565b6101ff610133565b918291826101c6565b0390f35b610139565b600080fd5b61021f90610177565b90565b61022b81610216565b0361023257565b600080fd5b9050359061024482610222565b565b90565b61025281610246565b0361025957565b600080fd5b9050359061026b82610249565b565b90565b6102798161026d565b0361028057565b600080fd5b9050359061029282610270565b565b90916060828403126102ca576102c76102b08460008501610237565b936102be816020860161025e565b93604001610285565b90565b61013e565b6102d890610216565b9052565b91906102f0906000602085019401906102cf565b565b346103235761031f61030e610308366004610294565b91610e21565b610316610133565b918291826102dc565b0390f35b610139565b346103595761035561034461033e366004610294565b91610f22565b61034c610133565b918291826102dc565b0390f35b610139565b600080fd5b600080fd5b600080fd5b909182601f830112156103a75781359167ffffffffffffffff83116103a257602001926001830284011161039d57565b610368565b610363565b61035e565b90608082820312610408576103c48160008401610237565b926103d2826020850161025e565b926103e08360408301610285565b92606082013567ffffffffffffffff8111610403576103ff920161036d565b9091565b610211565b61013e565b346104415761043d61042c6104233660046103ac565b9392909261168b565b610434610133565b918291826101c6565b0390f35b610139565b600080fd5b601f801991011690565b634e487b7160e01b600052604160045260246000fd5b906104759061044b565b810190811067ffffffffffffffff82111761048f57604052565b610455565b906104a76104a0610133565b928361046b565b565b67ffffffffffffffff81116104c7576104c360209161044b565b0190565b610455565b90826000939282370152565b909291926104ed6104e8826104a9565b610494565b9381855260208501908284011161050957610507926104cc565b565b610446565b9080601f8301121561052c57816020610529933591016104d8565b90565b61035e565b91906040838203126105725760008301359067ffffffffffffffff821161056d576105618161056a93860161050e565b9360200161025e565b90565b610211565b61013e565b61058090610246565b9052565b919061059890600060208501940190610577565b565b346105cb576105c76105b66105b0366004610531565b90611857565b6105be610133565b91829182610584565b0390f35b610139565b60000190565b34610604576105e6366004610143565b6105ee611893565b6105f6610133565b80610600816105d0565b0390f35b610139565b3461063957610619366004610143565b61063561062461189d565b61062c610133565b918291826102dc565b0390f35b610139565b909182601f830112156106785781359167ffffffffffffffff831161067357602001926020830284011161066e57565b610368565b610363565b61035e565b909182601f830112156106b75781359167ffffffffffffffff83116106b25760200192602083028401116106ad57565b610368565b610363565b61035e565b909182601f830112156106f65781359167ffffffffffffffff83116106f15760200192602083028401116106ec57565b610368565b610363565b61035e565b9060608282031261077d57600082013567ffffffffffffffff8111610778578161072691840161063e565b929093602082013567ffffffffffffffff8111610773578361074991840161067d565b929093604082013567ffffffffffffffff811161076e5761076a92016106bc565b9091565b610211565b610211565b610211565b61013e565b5190565b60209181520190565b60200190565b61079e90610216565b9052565b906107af81602093610795565b0190565b60200190565b906107d66107d06107c984610782565b8093610786565b9261078f565b9060005b8181106107e75750505090565b9091926108006107fa60019286516107a2565b946107b3565b91019190916107da565b61082091602082019160008184039101526107b9565b90565b3461085a576108566108456108393660046106fb565b94939093929192611a71565b61084d610133565b9182918261080a565b0390f35b610139565b909182601f830112156108995781359167ffffffffffffffff831161089457602001926020830284011161088f57565b610368565b610363565b61035e565b909160808284031261094957600082013567ffffffffffffffff811161094457836108ca91840161063e565b929093602082013567ffffffffffffffff811161093f57816108ed91840161067d565b929093604082013567ffffffffffffffff811161093a57836109109184016106bc565b929093606082013567ffffffffffffffff811161093557610931920161085f565b9091565b610211565b610211565b610211565b610211565b61013e565b5190565b60209181520190565b60200190565b61096a906101ad565b9052565b9061097b81602093610961565b0190565b60200190565b906109a261099c6109958461094e565b8093610952565b9261095b565b9060005b8181106109b35750505090565b9091926109cc6109c6600192865161096e565b9461097f565b91019190916109a6565b6109ec9160208201916000818403910152610985565b90565b34610a2957610a25610a14610a0536600461089e565b96959095949194939293611f58565b610a1c610133565b918291826109d6565b0390f35b610139565b151590565b610a3c81610a2e565b03610a4357565b600080fd5b90503590610a5582610a33565b565b90602082820312610a7157610a6e91600001610a48565b90565b61013e565b34610aa457610a8e610a89366004610a57565b612240565b610a96610133565b80610aa0816105d0565b0390f35b610139565b90602082820312610ac357610ac091600001610237565b90565b61013e565b34610af657610ae0610adb366004610aa9565b6122fd565b610ae8610133565b80610af2816105d0565b0390f35b610139565b34610b3257610b2e610b1d610b113660046106fb565b94939093929192612308565b610b25610133565b918291826109d6565b0390f35b610139565b1c90565b60018060a01b031690565b610b56906008610b5b9302610b37565b610b3b565b90565b90610b699154610b46565b90565b610b796001600090610b5e565b90565b34610bac57610b8c366004610143565b610ba8610b97610b6c565b610b9f610133565b918291826102dc565b0390f35b610139565b60ff1690565b610bc7906008610bcc9302610b37565b610bb1565b90565b90610bda9154610bb7565b90565b610bea6001601490610bcf565b90565b610bf690610a2e565b9052565b9190610c0e90600060208501940190610bed565b565b34610c4057610c20366004610143565b610c3c610c2b610bdd565b610c33610133565b91829182610bfa565b0390f35b610139565b34610c7357610c5d610c58366004610aa9565b6124a1565b610c65610133565b80610c6f816105d0565b0390f35b610139565b34610ca957610ca5610c94610c8e366004610531565b90612511565b610c9c610133565b91829182610584565b0390f35b610139565b34610cdf57610cdb610cca610cc4366004610294565b9161258a565b610cd2610133565b918291826101c6565b0390f35b610139565b600080fd5b600090565b60001b90565b610d08610d03610d0d9261026d565b610cee565b610246565b90565b610d1990610185565b90565b610d2590610d10565b90565b916020610d4a929493610d43604082019660008301906102cf565b0190610577565b565b5190565b60209181520190565b60005b838110610d6d575050906000910152565b806020918301518185015201610d5c565b610d9d610da6602093610dab93610d9481610d4c565b93848093610d50565b95869101610d59565b61044b565b0190565b91610dd392610dc6604082019360008301906102cf565b6020818403910152610d7e565b90565b905090565b610e00610df792602092610dee81610d4c565b94858093610dd6565b93849101610d59565b0190565b610e1290610e189392610ddb565b90610ddb565b90565b60200190565b90610f06610e3a610f1f94610e34610ce9565b50610cf4565b92610ee061068691610e4e60208401610494565b9280845261281e6020850139610eba610e867f0000000000000000000000000000000000000000000000000000000000000000610d1c565b91610eab610e92610133565b978892600460208501632f84fd1f60e21b815201610d28565b6020820181038252038661046b565b610ed1610ec5610133565b95869260208401610daf565b6020820181038252038461046b565b610ef7610eeb610133565b93849260208401610e04565b6020820181038252038261046b565b610f18610f1282610d4c565b91610e1b565b209061270e565b90565b91610f3892610f2f610ce9565b50919091610e21565b90565b600090565b60a01c90565b610f52610f5791610f40565b610bb1565b90565b610f649054610f46565b90565b60001c90565b610f79610f7e91610f67565b610b3b565b90565b610f8b9054610f6d565b90565b90565b610fa5610fa0610faa92610f8e565b610182565b610177565b90565b610fb690610f91565b90565b60209181520190565b60207f65726966696572206e6f74207365740000000000000000000000000000000000917f4c6963656e7365506c6174654163636f756e74466163746f72793a205a4b207660008201520152565b61101d602f604092610fb9565b61102681610fc2565b0190565b6110409060208101906000818303910152611010565b90565b1561104a57565b611052610133565b62461bcd60e51b8152806110686004820161102a565b0390fd5b5090565b61108461107f61108992610f8e565b610182565b61026d565b90565b60207f6620726571756972656400000000000000000000000000000000000000000000917f4c6963656e7365506c6174654163636f756e74466163746f72793a2070726f6f60008201520152565b6110e7602a604092610fb9565b6110f08161108c565b0190565b61110a90602081019060008183039101526110da565b90565b1561111457565b61111c610133565b62461bcd60e51b815280611132600482016110f4565b0390fd5b67ffffffffffffffff811161114b5760200290565b610455565b9092919261116561116082611136565b610494565b93602085920283019281841161119d57915b8383106111845750505050565b602080916111928486610285565b815201920191611177565b610368565b9080601f830112156111bd576111ba91600290611150565b90565b61035e565b67ffffffffffffffff81116111d75760200290565b610455565b909291926111f16111ec826111c2565b610494565b93604085920283019281841161122a57915b8383106112105750505050565b602060409161121f84866111a2565b815201920191611203565b610368565b9080601f8301121561124a57611247916002906111dc565b90565b61035e565b9091610100828403126112865761128361126c84600085016111a2565b9361127a816040860161122f565b9360c0016111a2565b90565b61013e565b67ffffffffffffffff81116112a05760200290565b610455565b6112b16112b69161128b565b610494565b90565b369037565b906112dc6112cb836112a5565b926112d6849161128b565b906112b9565b565b6112e860016112be565b90565b6112ff6112fa6113049261026d565b610182565b61026d565b90565b61131361131891610f67565b6112eb565b90565b634e487b7160e01b600052603260045260246000fd5b50600190565b9061134182611331565b81101561134f576020020190565b61131b565b9061135e9061026d565b9052565b61136b90610185565b90565b61137790611362565b90565b61138390610d10565b90565b60e01b90565b9050519061139982610a33565b565b906020828203126113b5576113b29160000161138c565b90565b61013e565b50600290565b905090565b90565b6113d19061026d565b9052565b906113e2816020936113c8565b0190565b60200190565b6114086114026113fb836113ba565b80946113c0565b916113c5565b6000915b8383106114195750505050565b61142f61142960019284516113d5565b926113e6565b9201919061140c565b50600290565b905090565b90565b905090565b61146761146161145a836113ba565b8094611446565b916113c5565b6000915b8383106114785750505050565b61148e61148860019284516113d5565b926113e6565b9201919061146b565b906114a48160409361144b565b0190565b60200190565b6114ca6114c46114bd83611438565b809461143e565b91611443565b6000915b8383106114db5750505050565b6114f16114eb6001928451611497565b926114a8565b920191906114ce565b905090565b90565b60200190565b61152461151e61151783611331565b80946114fa565b916114ff565b6000915b8383106115355750505050565b61154b61154560019284516113d5565b92611502565b92019190611528565b61158c611593946115826101009498979561157861012086019a60008701906113ec565b60408501906114ae565b60c08301906113ec565b0190611508565b565b61159d610133565b3d6000823e3d90fd5b60207f6c69642070726f6f660000000000000000000000000000000000000000000000917f4c6963656e7365506c6174654163636f756e74466163746f72793a20696e766160008201520152565b6116016029604092610fb9565b61160a816115a6565b0190565b61162490602081019060008183039101526115f4565b90565b1561162e57565b611636610133565b62461bcd60e51b81528061164c6004820161160e565b0390fd5b61165990610d10565b90565b61166590610246565b90565b6116719061026d565b9052565b919061168990600060208501940190611668565b565b9294939094611698610f3b565b506116a36001610f5a565b61171a575b50506116b68285839161258a565b936116c085610d1c565b929091926117156117036116fd6116f77ffe318c94eb3973f0a63ea7cd4d387d460fbd4b2644fdcb9460b73236c711853b94611650565b94611650565b9461165c565b9461170c610133565b91829182611675565b0390a4565b6020916117809161175061172e6001610f81565b61174961174361173e6000610fad565b610216565b91610216565b1415611043565b61177761175e82849061106c565b61177161176b6000611070565b9161026d565b1161110d565b9081019061124f565b9092919290926117f16117916112de565b916117b761179e8b611307565b6117b2856117ac6000611070565b90611337565b611354565b6117fc6117d46117cf6117ca6001610f81565b61136e565b61137a565b936343753b4d9295976117e5610133565b98899788968796611386565b865260048601611554565b03915afa801561184d576118189160009161181f575b50611627565b38806116a8565b611840915060203d8111611846575b611838818361046b565b81019061139b565b38611812565b503d61182e565b611595565b600090565b9061186a91611864611852565b50612511565b90565b61187561272f565b61187d61187f565b565b61189161188c6000610fad565b61277e565b565b61189b61186d565b565b6118a5610ce9565b506118b06000610f81565b90565b606090565b5090565b5090565b5090565b60207f6d61746368000000000000000000000000000000000000000000000000000000917f4163636f756e74466163746f72793a206172726179206c656e677468206d697360008201520152565b61191f6025604092610fb9565b611928816118c4565b0190565b6119429060208101906000818303910152611912565b90565b1561194c57565b611954610133565b62461bcd60e51b81528061196a6004820161192c565b0390fd5b67ffffffffffffffff81116119865760208091020190565b610455565b9061199d6119988361196e565b610494565b918252565b369037565b906119cc6119b48361198b565b926020806119c2869361196e565b92019103906119a2565b565b60016119da910161026d565b90565b91908110156119ed576020020190565b61131b565b356119fc81610222565b90565b9190811015611a0f576020020190565b61131b565b35611a1e81610249565b90565b9190811015611a31576020020190565b61131b565b35611a4081610270565b90565b90611a4d82610782565b811015611a5e576020809102010190565b61131b565b90611a6d90610216565b9052565b93929095949195611a806118b3565b50611a8c8582906118b8565b611aa8611aa2611a9d8a86906118bc565b61026d565b9161026d565b1480611b6f575b611ab890611945565b611acb611ac68683906118b8565b6119a7565b94611ad66000611070565b5b80611af4611aee611ae98587906118b8565b61026d565b9161026d565b1015611b6357611b5e90611b59611b478b611b2d611b28611b1f611b1a898b89916119dd565b6119f2565b928a87916119ff565b611a14565b611b41611b3c8c8c8891611a21565b611a36565b91610e21565b611b548a91849092611a43565b611a63565b6119ce565b611ad7565b50505050505090915090565b50611ab8611b7e8683906118b8565b611b9a611b94611b8f8888906118c0565b61026d565b9161026d565b149050611aaf565b606090565b60207f79206c656e677468206d69736d61746368000000000000000000000000000000917f4c6963656e7365506c6174654163636f756e74466163746f72793a206172726160008201520152565b611c026031604092610fb9565b611c0b81611ba7565b0190565b611c259060208101906000818303910152611bf5565b90565b15611c2f57565b611c37610133565b62461bcd60e51b815280611c4d60048201611c0f565b0390fd5b5090565b60207f6673206c656e677468206d69736d617463680000000000000000000000000000917f4c6963656e7365506c6174654163636f756e74466163746f72793a2070726f6f60008201520152565b611cb06032604092610fb9565b611cb981611c55565b0190565b611cd39060208101906000818303910152611ca3565b90565b15611cdd57565b611ce5610133565b62461bcd60e51b815280611cfb60048201611cbd565b0390fd5b67ffffffffffffffff8111611d175760208091020190565b610455565b90611d2e611d2983611cff565b610494565b918252565b369037565b90611d5d611d4583611d1c565b92602080611d538693611cff565b9201910390611d33565b565b67ffffffffffffffff8111611d7d57611d7960209161044b565b0190565b610455565b90611d94611d8f83611d5f565b610494565b918252565b369037565b90611dc3611dab83611d82565b92602080611db98693611d5f565b9201910390611d99565b565b600080fd5b600080fd5b600080fd5b903590600160200381360303821215611e16570180359067ffffffffffffffff8211611e1157602001916001820236038313611e0c57565b611dcf565b611dca565b611dc5565b90821015611e36576020611e329202810190611dd4565b9091565b61131b565b90929192611e50611e4b82611d5f565b610494565b93818552602085019082840111611e6c57611e6a926104cc565b565b610446565b611e7c913691611e3b565b90565b611e8890610d10565b90565b611e9490610177565b90565b611ea090611e8b565b90565b611eac81611e97565b03611eb357565b600080fd5b90505190611ec582611ea3565b565b90602082820312611ee157611ede91600001611eb8565b90565b61013e565b9092611f1a90611f10611f279694611f06608086019760008701906102cf565b6020850190610577565b6040830190611668565b6060818403910152610d7e565b90565b90611f348261094e565b811015611f45576020809102010190565b61131b565b90611f5490611e97565b9052565b929093959796949194611f69611ba2565b50611f758486906118b8565b611f91611f8b611f868986906118bc565b61026d565b9161026d565b1480612166575b611fa190611c28565b611fab6001610f5a565b612131575b611fc3611fbe8587906118b8565b611d38565b98611fce6000611070565b5b80611fec611fe6611fe1898b906118b8565b61026d565b9161026d565b101561212657806020898961209160008b8f9761209c9061207d6120788f8f8f8f9161206a9161206f936120206001610f5a565b8c1461210e5761203c9161203691908a91611e1b565b90611e71565b5b9661206161205c61204d30611e7f565b9e63568a73479c9084916119dd565b6119f2565b9d9190916119ff565b611a14565b9c908c91611a21565b611a36565b612085610133565b9a8b9889978896611386565b865260048601611ee6565b03925af1918215612109576120d0928d6120cb926000926120d5575b506120c69091849092611f2a565b611f4a565b6119ce565b611fcf565b6120c69192506120fb9060203d8111612102575b6120f3818361046b565b810190611ec7565b91906120b8565b503d6120e9565b611595565b505061212161211c8b611070565b611d9e565b61203d565b505050505050505050565b61216161213f8a8390611c51565b61215b612155612150888a906118b8565b61026d565b9161026d565b14611cd6565b611fb0565b50611fa16121758587906118b8565b61219161218b6121868b88906118c0565b61026d565b9161026d565b149050611f98565b6121aa906121a561272f565b6121fa565b565b60a01b90565b906121c160ff60a01b916121ac565b9181191691161790565b6121d490610a2e565b90565b90565b906121ef6121ea6121f6926121cb565b6121d7565b82546121b2565b9055565b6122058160016121da565b61223b7f4524f36b367ec21ec12b8db27251cc858097d4dd37ff8c8a76e8dd1913e9d76391612232610133565b91829182610bfa565b0390a1565b61224990612199565b565b61225c9061225761272f565b61229c565b565b9061226f60018060a01b0391610cee565b9181191691161790565b90565b9061229161228c61229892611650565b612279565b825461225e565b9055565b6122a66001610f81565b6122b182600161227c565b906122e56122df7fa7912e737f35ce8dfa9cf451acb66d4dd1f672979c93fb522a89eb962132492693611650565b91611650565b916122ee610133565b806122f8816105d0565b0390a3565b6123069061224b565b565b93929095949195612317611ba2565b506123238582906118b8565b61233f6123396123348a86906118bc565b61026d565b9161026d565b1480612406575b61234f90611945565b61236261235d8683906118b8565b611d38565b9461236d6000611070565b5b8061238b6123856123808587906118b8565b61026d565b9161026d565b10156123fa576123f5906123f06123de8b6123c46123bf6123b66123b1898b89916119dd565b6119f2565b928a87916119ff565b611a14565b6123d86123d38c8c8891611a21565b611a36565b9161258a565b6123eb8a91849092611f2a565b611f4a565b6119ce565b61236e565b50505050505090915090565b5061234f6124158683906118b8565b61243161242b6124268888906118c0565b61026d565b9161026d565b149050612346565b61244a9061244561272f565b61244c565b565b8061246861246261245d6000610fad565b610216565b91610216565b14612478576124769061277e565b565b61249d6124856000610fad565b6000918291631e4fbdf760e01b8352600483016102dc565b0390fd5b6124aa90612439565b565b5190565b905090565b6124da6124d1926020926124c8816124ac565b948580936124b0565b93849101610d59565b0190565b90565b6124ed6124f291610246565b6124de565b9052565b61250661250d91602094936124b5565b80926124e1565b0190565b6125449061251d611852565b50612535612529610133565b938492602084016124f6565b6020820181038252038261046b565b61255661255082610d4c565b91610e1b565b2090565b612563906101a1565b90565b61256f90610185565b90565b61257b90612566565b90565b612587906101a1565b90565b909291612595610f3b565b506125a282858391610e21565b803b6125b76125b16000611070565b9161026d565b116126e857506125c681610cf4565b6125ef7f0000000000000000000000000000000000000000000000000000000000000000610d1c565b8390612629879261261a612601610133565b948592600460208501632f84fd1f60e21b815201610d28565b6020820181038252038361046b565b612631610133565b9161068683019083821067ffffffffffffffff8311176126e357839261265e9261068661281e8639610daf565b03906000f580156126de5761267561267a9161257e565b612572565b9361268485610d1c565b929091926126d96126c76126c16126bb7f53b1ae664a211872d6c12cc55b117a1995ccea2307ce22b29c64e285a3ee1ebf94611650565b94611650565b9461165c565b946126d0610133565b91829182611675565b0390a4565b611595565b610455565b90506126ff9293506126fa915061255a565b612572565b90565b61270b90610d10565b90565b9061272c9161271b610ce9565b509061272630612702565b916127df565b90565b61273761189d565b61275061274a612745612810565b610216565b91610216565b0361275757565b61277a612762612810565b600091829163118cdaa760e01b8352600483016102dc565b0390fd5b6127886000610f81565b61279382600061227c565b906127c76127c17f8be0079c531659141344cd1fd0a4f28419497f9722a3daafe3b4186f6b6457e093611650565b91611650565b916127d0610133565b806127da816105d0565b0390a3565b91600b926127eb610ce9565b50604051926040840152602083015281520160ff8153605560018060a01b0391201690565b612818610ce9565b50339056fe608060405261001561000f6101bf565b906101e1565b61001d61002b565b610115610571823961011590f35b60405190565b601f801991011690565b634e487b7160e01b600052604160045260246000fd5b9061005b90610031565b810190811060018060401b0382111761007357604052565b61003b565b9061008b61008461002b565b9283610051565b565b600080fd5b600080fd5b60018060a01b031690565b6100ab90610097565b90565b6100b7816100a2565b036100be57565b600080fd5b905051906100d0826100ae565b565b600080fd5b600080fd5b60018060401b0381116100f8576100f4602091610031565b0190565b61003b565b60005b838110610111575050906000910152565b806020918301518185015201610100565b90929192610137610132826100dc565b610078565b9381855260208501908284011161015357610151926100fd565b565b6100d7565b9080601f830112156101765781602061017393519101610122565b90565b6100d2565b9190916040818403126101ba5761019583600083016100c3565b92602082015160018060401b0381116101b5576101b29201610158565b90565b610092565b61008d565b6101dd610686803803806101d281610078565b92833981019061017b565b9091565b906101eb91610250565b565b90565b6102046101ff61020992610097565b6101ed565b610097565b90565b610215906101f0565b90565b6102219061020c565b90565b60000190565b5190565b90565b90565b61024861024361024d92610231565b6101ed565b61022e565b90565b9061025a82610390565b816102857fbc7cd75a20ee27fd9adebab32041f755214dbc6bffa90cc0225b39da2e5c2d3b91610218565b9061028e61002b565b8061029881610224565b0390a26102a48161022a565b6102b76102b16000610234565b9161022e565b116000146102cc576102c891610467565b505b565b50506102d66103e8565b6102ca565b6102e4906100a2565b9052565b91906102fc906000602085019401906102db565b565b90565b90565b60001b90565b61031e610319610323926102fe565b610304565b610301565b90565b61034f7f360894a13ba1a3210667c828492db98dca3e2076cc3735a920a3ca505d382bbc61030a565b90565b9061036360018060a01b0391610304565b9181191691161790565b90565b9061038561038061038c92610218565b61036d565b8254610352565b9055565b803b6103a561039f6000610234565b9161022e565b146103c8576103c69060006103c06103bb610326565b610497565b01610370565b565b6103e4906000918291634c9c8ce360e01b8352600483016102e8565b0390fd5b346103fc6103f66000610234565b9161022e565b1161040357565b600063b398979f60e01b81528061041c60048201610224565b0390fd5b606090565b90610437610432836100dc565b610078565b918252565b3d6000146104595761044d3d610425565b903d6000602084013e5b565b610461610420565b90610457565b60008061049493610476610420565b508390602081019051915af49061048b61043c565b9091909161049f565b90565b90565b151590565b906104b3906104ac610420565b501561049a565b6000146104c05750610527565b6104c98261022a565b6104dc6104d66000610234565b9161022e565b148061050b575b6104eb575090565b610507906000918291639996b31560e01b8352600483016102e8565b0390fd5b50803b61052161051b6000610234565b9161022e565b146104e3565b6105308161022a565b61054361053d6000610234565b9161022e565b1160001461055357602081519101fd5b600063d6bda27560e01b81528061056c60048201610224565b0390fdfe6080604052600a6013565b6023565b600090565b6019600e565b50602060bd565b90565b60008091368280378136915af43d6000803e6000146040573d6000f35b3d6000fd5b90565b90565b60001b90565b6060605c6064926045565b604b565b6048565b90565b608e7f360894a13ba1a3210667c828492db98dca3e2076cc3735a920a3ca505d382bbc6051565b90565b60001c90565b60018060a01b031690565b60ab60af916091565b6097565b90565b60ba905460a2565b90565b60c3600e565b5060d9600060d460d06067565b60dc565b0160b2565b90565b9056fea26469706673582212208a4cb0cc9e9648eab84fe313148ea671216a43ec54db680b83222600de869a5664736f6c634300081c0033a2646970667358221220983a5cec1d04eedf939d8422e6cb0bcdb6f3727438a54bda02778ae9228cbd9964736f6c634300081c003360a06040523461003f57610019610014610116565b610137565b610021610044565b61203361036982396080518181816113090152611b8f015261203390f35b61004a565b60405190565b600080fd5b601f801991011690565b634e487b7160e01b600052604160045260246000fd5b906100799061004f565b810190811060018060401b0382111761009157604052565b610059565b906100a96100a2610044565b928361006f565b565b600080fd5b60018060a01b031690565b6100c4906100b0565b90565b6100d0906100bb565b90565b6100dc816100c7565b036100e357565b600080fd5b905051906100f5826100d3565b565b906020828203126101115761010e916000016100e8565b90565b6100ab565b61013461239c8038038061012981610096565b9283398101906100f7565b90565b60805261014261023a565b565b60401c90565b60ff1690565b61015c61016191610144565b61014a565b90565b61016e9054610150565b90565b60000190565b60001c90565b60018060401b031690565b61019461019991610177565b61017d565b90565b6101a69054610188565b90565b60018060401b031690565b60001b90565b906101cb60018060401b03916101b4565b9181191691161790565b90565b6101ec6101e76101f1926101a9565b6101d5565b6101a9565b90565b90565b9061020c610207610213926101d8565b6101f4565b82546101ba565b9055565b610220906101a9565b9052565b919061023890600060208501940190610217565b565b6102426102f6565b61024e60008201610164565b6102d95761025e6000820161019c565b61027661027060018060401b036101a9565b916101a9565b0361027f575b50565b61029390600060018060401b0391016101f7565b60018060401b036102d07fc7f505b2f371ae2175ee4913f4499e1f2633a7b5936321eed1cdaeb6115181d2916102c7610044565b91829182610224565b0390a13861027c565b600063f92ee8a960e01b8152806102f260048201610171565b0390fd5b6102fe610354565b90565b600090565b90565b90565b61032061031b61032592610306565b6101b4565b610309565b90565b6103517ff0c57e16840df040f15088dc2f81fe391c3923bec73e23a9662efc9c229c6a0061030c565b90565b61035c610301565b50610365610328565b9056fe60806040526004361015610015575b36610a3c57005b6100206000356100ff565b806319822f7c146100fa5780633091a46b146100f5578063426d6f6f146100f057806347e1da2a146100eb5780634a58db19146100e65780634d44560d146100e15780634f45740d146100dc5780635bde6fd6146100d75780638da5cb5b146100d2578063b0d691fe146100cd578063b61d27f6146100c8578063be13f47c146100c3578063c399ec88146100be5763d087d2880361000e57610a07565b6109d2565b61099e565b610939565b61084e565b6107bf565b61071b565b61058f565b61053c565b6104aa565b610470565b6102e2565b61029d565b6101f7565b60e01c90565b60405190565b600080fd5b600080fd5b600080fd5b600080fd5b908161012091031261012e5790565b61011a565b90565b61013f81610133565b0361014657565b600080fd5b9050359061015882610136565b565b90565b6101668161015a565b0361016d57565b600080fd5b9050359061017f8261015d565b565b90916060828403126101cf57600082013567ffffffffffffffff81116101ca576101b0846101c792850161011f565b936101be816020860161014b565b93604001610172565b90565b610115565b610110565b6101dd9061015a565b9052565b91906101f5906000602085019401906101d4565b565b346102285761022461021361020d366004610181565b91610a53565b61021b610105565b918291826101e1565b0390f35b61010b565b600091031261023857565b610110565b1c90565b90565b610254906008610259930261023d565b610241565b90565b906102679154610244565b90565b610277600160009061025c565b90565b61028390610133565b9052565b919061029b9060006020850194019061027a565b565b346102cd576102ad36600461022d565b6102c96102b861026a565b6102c0610105565b91829182610287565b0390f35b61010b565b6102df600260009061025c565b90565b34610312576102f236600461022d565b61030e6102fd6102d2565b610305610105565b91829182610287565b0390f35b61010b565b600080fd5b600080fd5b600080fd5b909182601f830112156103605781359167ffffffffffffffff831161035b57602001926020830284011161035657565b610321565b61031c565b610317565b909182601f8301121561039f5781359167ffffffffffffffff831161039a57602001926020830284011161039557565b610321565b61031c565b610317565b909182601f830112156103de5781359167ffffffffffffffff83116103d95760200192602083028401116103d457565b610321565b61031c565b610317565b9060608282031261046557600082013567ffffffffffffffff8111610460578161040e918401610326565b929093602082013567ffffffffffffffff811161045b5783610431918401610365565b929093604082013567ffffffffffffffff81116104565761045292016103a4565b9091565b610115565b610115565b610115565b610110565b60000190565b346104a55761048f6104833660046103e3565b94939093929192610c78565b610497610105565b806104a18161046a565b0390f35b61010b565b6104b536600461022d565b6104bd610e94565b6104c5610105565b806104cf8161046a565b0390f35b60018060a01b031690565b6104e7906104d3565b90565b6104f3816104de565b036104fa57565b600080fd5b9050359061050c826104ea565b565b9190604083820312610537578061052b61053492600086016104ff565b93602001610172565b90565b610110565b3461056b5761055561054f36600461050e565b90611008565b61055d610105565b806105678161046a565b0390f35b61010b565b9060208282031261058a576105879160000161014b565b90565b610110565b346105bd576105a76105a2366004610570565b6111f0565b6105af610105565b806105b98161046a565b0390f35b61010b565b600080fd5b601f801991011690565b634e487b7160e01b600052604160045260246000fd5b906105f1906105c7565b810190811067ffffffffffffffff82111761060b57604052565b6105d1565b9061062361061c610105565b92836105e7565b565b67ffffffffffffffff81116106435761063f6020916105c7565b0190565b6105d1565b90826000939282370152565b9092919261066961066482610625565b610610565b938185526020850190828401116106855761068392610648565b565b6105c2565b9080601f830112156106a8578160206106a593359101610654565b90565b610317565b91906040838203126106ee5760008301359067ffffffffffffffff82116106e9576106dd816106e693860161068a565b9360200161014b565b90565b610115565b610110565b151590565b610701906106f3565b9052565b9190610719906000602085019401906106f8565b565b3461074c576107486107376107313660046106ad565b90611294565b61073f610105565b91829182610705565b0390f35b61010b565b60018060a01b031690565b61076c906008610771930261023d565b610751565b90565b9061077f915461075c565b90565b61078d600080610774565b90565b610799906104d3565b90565b6107a590610790565b9052565b91906107bd9060006020850194019061079c565b565b346107ef576107cf36600461022d565b6107eb6107da610782565b6107e2610105565b918291826107a9565b0390f35b61010b565b90565b61080b610806610810926104d3565b6107f4565b6104d3565b90565b61081c906107f7565b90565b61082890610813565b90565b6108349061081f565b9052565b919061084c9060006020850194019061082b565b565b3461087e5761085e36600461022d565b61087a6108696112fe565b610871610105565b91829182610838565b0390f35b61010b565b61088c81610790565b0361089357565b600080fd5b905035906108a582610883565b565b909182601f830112156108e15781359167ffffffffffffffff83116108dc5760200192600183028401116108d757565b610321565b61031c565b610317565b91606083830312610934576108fe8260008501610898565b9261090c8360208301610172565b92604082013567ffffffffffffffff811161092f5761092b92016108a7565b9091565b610115565b610110565b3461096b5761095561094c3660046108e6565b9291909161132b565b61095d610105565b806109678161046a565b0390f35b61010b565b9190604083820312610999578061098d6109969260008601610898565b9360200161014b565b90565b610110565b346109cd576109b76109b1366004610970565b9061134d565b6109bf610105565b806109c98161046a565b0390f35b61010b565b34610a02576109e236600461022d565b6109fe6109ed611387565b6109f5610105565b918291826101e1565b0390f35b61010b565b34610a3757610a1736600461022d565b610a33610a22611485565b610a2a610105565b918291826101e1565b0390f35b61010b565b600080fd5b600090565b35610a508161015d565b90565b9291610a7f6020610a78610a8594610a69610a41565b50610a726115a6565b8761162d565b9501610a46565b50611722565b565b5090565b5090565b5090565b90565b610aaa610aa5610aaf92610a93565b6107f4565b61015a565b90565b60209181520190565b60007f6163636f756e743a2077726f6e67206172726179206c656e6774687300000000910152565b610af0601c602092610ab2565b610af981610abb565b0190565b610b139060208101906000818303910152610ae3565b90565b15610b1d57565b610b25610105565b62461bcd60e51b815280610b3b60048201610afd565b0390fd5b6001610b4b910161015a565b90565b634e487b7160e01b600052603260045260246000fd5b9190811015610b74576020020190565b610b4e565b35610b8381610883565b90565b9190811015610b96576020020190565b610b4e565b600080fd5b600080fd5b600080fd5b903590600160200381360303821215610bec570180359067ffffffffffffffff8211610be757602001916001820236038313610be257565b610ba5565b610ba0565b610b9b565b90821015610c0c576020610c089202810190610baa565b9091565b610b4e565b67ffffffffffffffff8111610c2f57610c2b6020916105c7565b0190565b6105d1565b90929192610c49610c4482610c11565b610610565b93818552602085019082840111610c6557610c6392610648565b565b6105c2565b610c75913691610c34565b90565b919092959495610c86611802565b610c91838590610a87565b610cad610ca7610ca2888b90610a8b565b61015a565b9161015a565b1480610dfd575b610cbd90610b16565b610cc8828290610a8f565b610cdb610cd56000610a96565b9161015a565b14600014610d69575050610cef6000610a96565b5b80610d0d610d07610d02858790610a87565b61015a565b9161015a565b1015610d6057610d5b90610d56610d2e610d2985878591610b64565b610b79565b6000610d50610d4a610d428a8d8891610bf1565b919093610a96565b92610c6a565b9161185f565b610b3f565b610cf0565b5050505090505b565b91610d78600097949297610a96565b5b80610d96610d90610d8b858790610a87565b61015a565b9161015a565b1015610df057610deb90610de6610db7610db285878591610b64565b610b79565b610dcb610dc68c898691610b86565b610a46565b610de0610dda8b8b8791610bf1565b90610c6a565b9161185f565b610b3f565b610d79565b5050505050509050610d67565b50610e09828290610a8f565b610e1c610e166000610a96565b9161015a565b148015610e29575b610cb4565b50610cbd610e38838390610a8f565b610e54610e4e610e49898c90610a8b565b61015a565b9161015a565b149050610e24565b610e6590610813565b90565b600080fd5b60e01b90565b6000910312610e7e57565b610110565b610e8b610105565b3d6000823e3d90fd5b610ea4610e9f6112fe565b61081f565b63b760faf93491909190610eb730610e5c565b90803b15610f2c57610edd600093610ee895610ed1610105565b96879586948593610e6d565b8352600483016107a9565b03925af18015610f2757610efa575b50565b610f1a9060003d8111610f20575b610f1281836105e7565b810190610e73565b38610ef7565b503d610f08565b610e83565b610e68565b90610f4391610f3e611914565b610f76565b565b610f4e906104de565b9052565b916020610f74929493610f6d60408201966000830190610f45565b01906101d4565b565b610f86610f816112fe565b61081f565b9163205c2878919092803b1561100357610fb460008094610fbf610fa8610105565b97889687958694610e6d565b845260048401610f52565b03925af18015610ffe57610fd1575b50565b610ff19060003d8111610ff7575b610fe981836105e7565b810190610e73565b38610fce565b503d610fdf565b610e83565b610e68565b9061101291610f31565b565b61102590611020611914565b611169565b565b60001b90565b61104161103c61104692610a93565b611027565b610133565b90565b60207f726f000000000000000000000000000000000000000000000000000000000000917f6163636f756e743a20636f6d6d69746d656e742063616e6e6f74206265207a6560008201520152565b6110a46022604092610ab2565b6110ad81611049565b0190565b6110c79060208101906000818303910152611097565b90565b156110d157565b6110d9610105565b62461bcd60e51b8152806110ef600482016110b1565b0390fd5b60001c90565b61110561110a916110f3565b610241565b90565b61111790546110f9565b90565b9061112760001991611027565b9181191691161790565b61113a90610133565b90565b611146906110f3565b90565b9061115e61115961116592611131565b61113d565b825461111a565b9055565b61118f8161118861118261117d600061102d565b610133565b91610133565b14156110ca565b611199600161110d565b6111a4826001611149565b906111d86111d27f255b58ae3de9903e3994af5e011f5ebd3865ab96399a575d1e053761b6a6003793611131565b91611131565b916111e1610105565b806111eb8161046a565b0390a3565b6111f990611014565b565b600090565b5190565b905090565b60005b83811061121d575050906000910152565b80602091830151818501520161120c565b61125361124a9260209261124181611200565b94858093611204565b93849101611209565b0190565b90565b61126661126b91610133565b611257565b9052565b61127f611286916020949361122e565b809261125a565b0190565b60200190565b5190565b6112c7906112a06111fb565b506112b86112ac610105565b9384926020840161126f565b602082018103825203826105e7565b6112d96112d382611290565b9161128a565b206112f56112ef6112ea600161110d565b610133565b91610133565b1490565b600090565b6113066112f9565b507f000000000000000000000000000000000000000000000000000000000000000090565b61134b936113459193929361133e611802565b9392610c6a565b9161185f565b565b9061135791611afc565b565b905051906113668261015d565b565b906020828203126113825761137f91600001611359565b90565b610110565b61138f610a41565b506113d760206113a56113a06112fe565b61081f565b6370a08231906113cc6113b730610e5c565b926113c0610105565b95869485938493610e6d565b8352600483016107a9565b03915afa90811561141c576000916113ee575b5090565b61140f915060203d8111611415575b61140781836105e7565b810190611368565b386113ea565b503d6113fd565b610e83565b61142a90610813565b90565b60018060c01b031690565b61144c61144761145192610a93565b6107f4565b61142d565b90565b61145d90611438565b9052565b91602061148392949361147c6040820196600083019061079c565b0190611454565b565b61148d610a41565b5061149e6114996112fe565b61081f565b60206335567e1a916114af30611421565b906114cd6000946114d86114c1610105565b96879586948594610e6d565b845260048401611461565b03915afa90811561151d576000916114ef575b5090565b611510915060203d8111611516575b61150881836105e7565b810190611368565b386114eb565b503d6114fe565b610e83565b60007f6163636f756e743a206e6f742066726f6d20456e747279506f696e7400000000910152565b611557601c602092610ab2565b61156081611522565b0190565b61157a906020810190600081830391015261154a565b90565b1561158457565b61158c610105565b62461bcd60e51b8152806115a260048201611564565b0390fd5b6115d1336115cb6115c56115c06115bb6112fe565b61081f565b610790565b91610790565b1461157d565b565b6115df6115e4916110f3565b610751565b90565b6115f190546115d3565b90565b90565b61160b611606611610926115f4565b6107f4565b61015a565b90565b61161d60016115f7565b90565b61162a6000610a96565b90565b61165a61165461164861166094611642610a41565b50611c03565b92610100810190610baa565b90610c6a565b90611c40565b61167b61167561167060006115e7565b610790565b91610790565b0361168b57611688611620565b90565b611693611613565b90565b61169f906107f7565b90565b6116ab90611696565b90565b6116b790610813565b90565b905090565b6116cb600080926116ba565b0190565b6116d8906116bf565b90565b906116ed6116e883610c11565b610610565b918252565b606090565b3d600014611714576117083d6116db565b903d6000602084013e5b565b61171c6116f2565b90611712565b806117366117306000610a96565b9161015a565b0361173f575b50565b6000809161175461174f336116a2565b6116ae565b9082199190611761610105565b918261176c816116cf565b0393f1506117786116f7565b503861173c565b60007f6163636f756e743a206e6f74204f776e6572206f7220456e747279506f696e74910152565b6117b360208092610ab2565b6117bc8161177f565b0190565b6117d690602081019060008183039101526117a7565b90565b156117e057565b6117e8610105565b62461bcd60e51b8152806117fe600482016117c0565b0390fd5b3361182461181e6118196118146112fe565b61081f565b610790565b91610790565b148015611837575b611835906117d9565b565b506118353361185761185161184c60006115e7565b610790565b91610790565b14905061182c565b90600092839291602082019151925af161188161187a6116f7565b91156106f3565b6118885750565b602081519101fd5b60007f6f6e6c79206f776e657200000000000000000000000000000000000000000000910152565b6118c5600a602092610ab2565b6118ce81611890565b0190565b6118e890602081019060008183039101526118b8565b90565b156118f257565b6118fa610105565b62461bcd60e51b815280611910600482016118d2565b0390fd5b3361193061192a61192560006115e7565b610790565b91610790565b148015611943575b611941906118eb565b565b506119413361196261195c61195730610e5c565b610790565b91610790565b149050611938565b61197e61197961198392610a93565b6107f4565b6104d3565b90565b61198f9061196a565b90565b60007f6163636f756e743a20616c726561647920696e697469616c697a656400000000910152565b6119c7601c602092610ab2565b6119d081611992565b0190565b6119ea90602081019060008183039101526119ba565b90565b156119f457565b6119fc610105565b62461bcd60e51b815280611a12600482016119d4565b0390fd5b60007f6163636f756e743a206f776e65722063616e6e6f74206265207a65726f000000910152565b611a4b601d602092610ab2565b611a5481611a16565b0190565b611a6e9060208101906000818303910152611a3e565b90565b15611a7857565b611a80610105565b62461bcd60e51b815280611a9660048201611a58565b0390fd5b90611aab60018060a01b0391611027565b9181191691161790565b611abe90610813565b90565b90565b90611ad9611ad4611ae092611ab5565b611ac1565b8254611a9a565b9055565b611aed906107f7565b90565b611af990611ae4565b90565b90611b2b611b0a60006115e7565b611b25611b1f611b1a6000611986565b610790565b91610790565b146119ed565b611b5182611b4a611b44611b3f6000611986565b610790565b91610790565b1415611a71565b611b7781611b70611b6a611b65600061102d565b610133565b91610133565b14156110ca565b611b82826000611ac4565b611b8d816001611149565b7f0000000000000000000000000000000000000000000000000000000000000000919091611bf9611be7611be17fcee66411d56f13f12ede17977a1523b79ee4d08c3d96a07ba1d378b83c6a093293611af0565b93611ab5565b93611bf0610105565b91829182610287565b0390a3565b600090565b611c0b611bfe565b507f19457468657265756d205369676e6564204d6573736167653a0a333200000000600052601c52603c60002090565b600090565b611c5f91611c5691611c50611c3b565b50611ca7565b90929192611db0565b90565b600090565b90565b611c7e611c79611c8392611c67565b6107f4565b61015a565b90565b611c9a611c95611c9f9261015a565b611027565b610133565b90565b600090565b919091611cb2611c3b565b50611cbb611c62565b50611cc4611bfe565b50611cce83611290565b611ce1611cdb6041611c6a565b9161015a565b14600014611d2a57611d239192611cf6611bfe565b50611cff611bfe565b50611d08611ca2565b5060208101516060604083015192015160001a909192611ef9565b9192909190565b50611d356000611986565b90611d49611d44600294611290565b611c86565b91929190565b634e487b7160e01b600052602160045260246000fd5b60041115611d6f57565b611d4f565b90611d7e82611d65565b565b611d94611d8f611d999261015a565b6107f4565b61015a565b90565b611da8611dad916110f3565b611d80565b90565b80611dc4611dbe6000611d74565b91611d74565b14600014611dd0575050565b80611de4611dde6001611d74565b91611d74565b14600014611e0957600063f645eedf60e01b815280611e056004820161046a565b0390fd5b80611e1d611e176002611d74565b91611d74565b14600014611e4d57611e49611e3183611d9c565b600091829163fce698f760e01b8352600483016101e1565b0390fd5b611e60611e5a6003611d74565b91611d74565b14611e685750565b611e849060009182916335e2f38360e21b835260048301610287565b0390fd5b90565b611e9f611e9a611ea492611e88565b6107f4565b61015a565b90565b60ff1690565b611eb690611ea7565b9052565b611ef0611ef794611ee6606094989795611edc608086019a600087019061027a565b6020850190611ead565b604083019061027a565b019061027a565b565b939293611f04611c3b565b50611f0d611c62565b50611f16611bfe565b50611f2085611d9c565b611f52611f4c7f7fffffffffffffffffffffffffffffff5d576e7357a4501ddfe92f46681b20a0611e8b565b9161015a565b11611fe65790611f7660209495600094939293611f6d610105565b94859485611eba565b838052039060015afa15611fe157611f8f600051611027565b80611fab611fa5611fa06000611986565b610790565b91610790565b14611fc357600091611fbd600061102d565b91929190565b50611fce6000611986565b600191611fdb600061102d565b91929190565b610e83565b505050611ff36000611986565b906003929192919056fea26469706673582212204f47f237e7f02fa9c78d486964228f63e4fbeae4f1270b0b9d6b6ec7acea11c464736f6c634300081c0033",
  "linkReferences": {},
  "deployedLinkReferences": {}
}