{
  "_format": "hh-sol-artifact-1",
  "contractName": "AccountFactory",
  "sourceName": "contracts/AccountFactory.sol",
  "abi": [
    {
      "inputs": [
        {
          "internalType": "contract IEntryPoint",
          "name": "_entryPoint",
          "type": "address"
        }
      ],
      "stateMutability": "nonpayable",
      "type": "constructor"
    },
    {
      "anonymous": false,
      "inputs": [
        {
          "indexed": true,
          "internalType": "address",
          "name": "account",
          "type": "address"
        },
        {
          "indexed": true,
          "internalType": "address",
          "name": "owner",
          "type": "address"
        },
        {
          "indexed": true,
          "internalType": "bytes32",
          "name": "vehicleCommitment",
          "type": "bytes32"
        },
        {
          "indexed": false,
          "internalType": "uint256",
          "name": "salt",
          "type": "uint256"
        }
      ],
      "name": "AccountCreated",
      "type": "event"
    },
    {
      "inputs": [],
      "name": "accountImplementation",
      "outputs": [
        {
          "internalType": "contract PrivacyProtectedAccount",
          "name": "",
          "type": "address"
        }
      ],
      "stateMutability": "view",
      "type": "function"
    },
    {
      "inputs": [
        {
          "internalType": "string",
          "name": "plateNumber",
          "type": "string"
        },
        {
          "internalType": "bytes32",
          "name": "userSalt",
          "type": "bytes32"
        }
      ],
      "name": "computeVehicleCommitment",
      "outputs": [
        {
          "internalType": "bytes32",
          "name": "",
          "type": "bytes32"
        }
      ],
      "stateMutability": "pure",
      "type": "function"
    },
    {
      "inputs": [
        {
          "internalType": "address",
          "name": "owner",
          "type": "address"
        },
        {
          "internalType": "bytes32",
          "name": "vehicleCommitment",
          "type": "bytes32"
        },
        {
          "internalType": "uint256",
          "name": "salt",
          "type": "uint256"
        }
      ],
      "name": "createAccount",
      "outputs": [
        {
          "internalType": "contract PrivacyProtectedAccount",
          "name": "account",
          "type": "address"
        }
      ],
      "stateMutability": "nonpayable",
      "type": "function"
    },
    {
      "inputs": [
        {
          "internalType": "address[]",
          "name": "owners",
          "type": "address[]"
        },
        {
          "internalType": "bytes32[]",
          "name": "vehicleCommitments",
          "type": "bytes32[]"
        },
        {
          "internalType": "uint256[]",
          "name": "salts",
          "type": "uint256[]"
        }
      ],
      "name": "createAccountBatch",
      "outputs": [
        {
          "internalType": "contract PrivacyProtectedAccount[]",
          "name": "accounts",
          "type": "address[]"
        }
      ],
      "stateMutability": "nonpayable",
      "type": "function"
    },
    {
      "inputs": [
        {
          "internalType": "address",
          "name": "owner",
          "type": "address"
        },
        {
          "internalType": "bytes32",
          "name": "vehicleCommitment",
          "type": "bytes32"
        },
        {
          "internalType": "uint256",
          "name": "salt",
          "type": "uint256"
        }
      ],
      "name": "getAddress",
      "outputs": [
        {
          "internalType": "address",
          "name": "",
          "type": "address"
        }
      ],
      "stateMutability": "view",
      "type": "function"
    },
    {
      "inputs": [
        {
          "internalType": "address[]",
          "name": "owners",
          "type": "address[]"
        },
        {
          "internalType": "bytes32[]",
          "name": "vehicleCommitments",
          "type": "bytes32[]"
        },
        {
          "internalType": "uint256[]",
          "name": "salts",
          "type": "uint256[]"
        }
      ],
      "name": "getAddressBatch",
      "outputs": [
        {
          "internalType": "address[]",
          "name": "addresses",
          "type": "address[]"
        }
      ],
      "stateMutability": "view",
      "type": "function"
    }
  ],
  "bytecode": "0x60a0604052346100455761001961001461011c565b6101a8565b61002161004a565b6118526101f5823960805181818160a5015281816108c30152611001015261185290f35b610050565b60405190565b600080fd5b601f801991011690565b634e487b7160e01b600052604160045260246000fd5b9061007f90610055565b810190811060018060401b0382111761009757604052565b61005f565b906100af6100a861004a565b9283610075565b565b600080fd5b60018060a01b031690565b6100ca906100b6565b90565b6100d6906100c1565b90565b6100e2816100cd565b036100e957565b600080fd5b905051906100fb826100d9565b565b9060208282031261011757610114916000016100ee565b90565b6100b1565b61013a613de38038038061012f8161009c565b9283398101906100fd565b90565b90565b61015461014f610159926100b6565b61013d565b6100b6565b90565b61016590610140565b90565b6101719061015c565b90565b61017d90610168565b9052565b919061019590600060208501940190610174565b565b61019f61004a565b3d6000823e3d90fd5b6101b061004a565b9061239c820182811060018060401b038211176101ef5782916101da9161239c611a478539610181565b03906000f080156101ea57608052565b610197565b61005f56fe60806040526004361015610013575b610745565b61001e60003561007d565b806311464fbe1461007857806323c0aac6146100735780638ef035271461006e578063c5e4b59014610069578063f46687af146100645763fe922abf0361000e5761070f565b6106d9565b610549565b61046c565b610242565b61012c565b60e01c90565b60405190565b600080fd5b600080fd5b600091031261009e57565b61008e565b7f000000000000000000000000000000000000000000000000000000000000000090565b60018060a01b031690565b90565b6100e96100e46100ee926100c7565b6100d2565b6100c7565b90565b6100fa906100d5565b90565b610106906100f1565b90565b610112906100fd565b9052565b919061012a90600060208501940190610109565b565b3461015c5761013c366004610093565b6101586101476100a3565b61014f610083565b91829182610116565b0390f35b610089565b600080fd5b61016f906100c7565b90565b61017b81610166565b0361018257565b600080fd5b9050359061019482610172565b565b90565b6101a281610196565b036101a957565b600080fd5b905035906101bb82610199565b565b90565b6101c9816101bd565b036101d057565b600080fd5b905035906101e2826101c0565b565b909160608284031261021a576102176102008460008501610187565b9361020e81602086016101ae565b936040016101d5565b90565b61008e565b61022890610166565b9052565b91906102409060006020850194019061021f565b565b346102735761026f61025e6102583660046101e4565b91610882565b610266610083565b9182918261022c565b0390f35b610089565b600080fd5b600080fd5b600080fd5b909182601f830112156102c15781359167ffffffffffffffff83116102bc5760200192602083028401116102b757565b610282565b61027d565b610278565b909182601f830112156103005781359167ffffffffffffffff83116102fb5760200192602083028401116102f657565b610282565b61027d565b610278565b909182601f8301121561033f5781359167ffffffffffffffff831161033a57602001926020830284011161033557565b610282565b61027d565b610278565b906060828203126103c657600082013567ffffffffffffffff81116103c1578161036f918401610287565b929093602082013567ffffffffffffffff81116103bc57836103929184016102c6565b929093604082013567ffffffffffffffff81116103b7576103b39201610305565b9091565b610161565b610161565b610161565b61008e565b5190565b60209181520190565b60200190565b6103e790610166565b9052565b906103f8816020936103de565b0190565b60200190565b9061041f610419610412846103cb565b80936103cf565b926103d8565b9060005b8181106104305750505090565b90919261044961044360019286516103eb565b946103fc565b9101919091610423565b6104699160208201916000818403910152610402565b90565b346104a35761049f61048e610482366004610344565b94939093929192610b7f565b610496610083565b91829182610453565b0390f35b610089565b5190565b60209181520190565b60200190565b6104c4906100fd565b9052565b906104d5816020936104bb565b0190565b60200190565b906104fc6104f66104ef846104a8565b80936104ac565b926104b5565b9060005b81811061050d5750505090565b90919261052661052060019286516104c8565b946104d9565b9101919091610500565b61054691602082019160008184039101526104df565b90565b346105805761057c61056b61055f366004610344565b94939093929192610d5b565b610573610083565b91829182610530565b0390f35b610089565b600080fd5b601f801991011690565b634e487b7160e01b600052604160045260246000fd5b906105b49061058a565b810190811067ffffffffffffffff8211176105ce57604052565b610594565b906105e66105df610083565b92836105aa565b565b67ffffffffffffffff81116106065761060260209161058a565b0190565b610594565b90826000939282370152565b9092919261062c610627826105e8565b6105d3565b93818552602085019082840111610648576106469261060b565b565b610585565b9080601f8301121561066b5781602061066893359101610617565b90565b610278565b91906040838203126106b15760008301359067ffffffffffffffff82116106ac576106a0816106a993860161064d565b936020016101ae565b90565b610161565b61008e565b6106bf90610196565b9052565b91906106d7906000602085019401906106b6565b565b3461070a576107066106f56106ef366004610670565b90610ef6565b6106fd610083565b918291826106c3565b0390f35b610089565b346107405761073c61072b6107253660046101e4565b91610fc0565b610733610083565b91829182610116565b0390f35b610089565b600080fd5b600090565b60001b90565b61076961076461076e926101bd565b61074f565b610196565b90565b61077a906100d5565b90565b61078690610771565b90565b9160206107ab9294936107a46040820196600083019061021f565b01906106b6565b565b5190565b60209181520190565b60005b8381106107ce575050906000910152565b8060209183015181850152016107bd565b6107fe61080760209361080c936107f5816107ad565b938480936107b1565b958691016107ba565b61058a565b0190565b91610834926108276040820193600083019061021f565b60208184039101526107df565b90565b905090565b6108616108589260209261084f816107ad565b94858093610837565b938491016107ba565b0190565b61087390610879939261083c565b9061083c565b90565b60200190565b9061096761089b6109809461089561074a565b50610755565b92610941610686916108af602084016105d3565b92808452611197602085013961091b6108e77f000000000000000000000000000000000000000000000000000000000000000061077d565b9161090c6108f3610083565b978892600460208501632f84fd1f60e21b815201610789565b602082018103825203866105aa565b610932610926610083565b95869260208401610810565b602082018103825203846105aa565b61095861094c610083565b93849260208401610865565b602082018103825203826105aa565b610979610973826107ad565b9161087c565b2090611144565b90565b606090565b5090565b5090565b5090565b60209181520190565b60207f6d61746368000000000000000000000000000000000000000000000000000000917f4163636f756e74466163746f72793a206172726179206c656e677468206d697360008201520152565b6109f86025604092610994565b610a018161099d565b0190565b610a1b90602081019060008183039101526109eb565b90565b15610a2557565b610a2d610083565b62461bcd60e51b815280610a4360048201610a05565b0390fd5b67ffffffffffffffff8111610a5f5760208091020190565b610594565b90610a76610a7183610a47565b6105d3565b918252565b369037565b90610aa5610a8d83610a64565b92602080610a9b8693610a47565b9201910390610a7b565b565b90565b610abe610ab9610ac392610aa7565b6100d2565b6101bd565b90565b6001610ad291016101bd565b90565b634e487b7160e01b600052603260045260246000fd5b9190811015610afb576020020190565b610ad5565b35610b0a81610172565b90565b9190811015610b1d576020020190565b610ad5565b35610b2c81610199565b90565b9190811015610b3f576020020190565b610ad5565b35610b4e816101c0565b90565b90610b5b826103cb565b811015610b6c576020809102010190565b610ad5565b90610b7b90610166565b9052565b93929095949195610b8e610983565b50610b9a858290610988565b610bb6610bb0610bab8a869061098c565b6101bd565b916101bd565b1480610c7d575b610bc690610a1e565b610bd9610bd4868390610988565b610a80565b94610be46000610aaa565b5b80610c02610bfc610bf7858790610988565b6101bd565b916101bd565b1015610c7157610c6c90610c67610c558b610c3b610c36610c2d610c28898b8991610aeb565b610b00565b928a8791610b0d565b610b22565b610c4f610c4a8c8c8891610b2f565b610b44565b91610882565b610c628a91849092610b51565b610b71565b610ac6565b610be5565b50505050505090915090565b50610bc6610c8c868390610988565b610ca8610ca2610c9d888890610990565b6101bd565b916101bd565b149050610bbd565b606090565b67ffffffffffffffff8111610ccd5760208091020190565b610594565b90610ce4610cdf83610cb5565b6105d3565b918252565b369037565b90610d13610cfb83610cd2565b92602080610d098693610cb5565b9201910390610ce9565b565b90610d1f826104a8565b811015610d30576020809102010190565b610ad5565b610d3e906100c7565b90565b610d4a90610d35565b90565b90610d5790610d41565b9052565b93929095949195610d6a610cb0565b50610d76858290610988565b610d92610d8c610d878a869061098c565b6101bd565b916101bd565b1480610e59575b610da290610a1e565b610db5610db0868390610988565b610cee565b94610dc06000610aaa565b5b80610dde610dd8610dd3858790610988565b6101bd565b916101bd565b1015610e4d57610e4890610e43610e318b610e17610e12610e09610e04898b8991610aeb565b610b00565b928a8791610b0d565b610b22565b610e2b610e268c8c8891610b2f565b610b44565b91610fc0565b610e3e8a91849092610d15565b610d4d565b610ac6565b610dc1565b50505050505090915090565b50610da2610e68868390610988565b610e84610e7e610e79888890610990565b6101bd565b916101bd565b149050610d99565b600090565b5190565b905090565b610ebf610eb692602092610ead81610e91565b94858093610e95565b938491016107ba565b0190565b90565b610ed2610ed791610196565b610ec3565b9052565b610eeb610ef29160209493610e9a565b8092610ec6565b0190565b610f2990610f02610e8c565b50610f1a610f0e610083565b93849260208401610edb565b602082018103825203826105aa565b610f3b610f35826107ad565b9161087c565b2090565b600090565b610f4d906100f1565b90565b610f59906100d5565b90565b610f6590610f50565b90565b610f70610083565b3d6000823e3d90fd5b610f82906100f1565b90565b610f8e90610771565b90565b610f9a90610196565b90565b610fa6906101bd565b9052565b9190610fbe90600060208501940190610f9d565b565b909291610fcb610f3f565b50610fd882858391610882565b803b610fed610fe76000610aaa565b916101bd565b1161111e5750610ffc81610755565b6110257f000000000000000000000000000000000000000000000000000000000000000061077d565b839061105f8792611050611037610083565b948592600460208501632f84fd1f60e21b815201610789565b602082018103825203836105aa565b611067610083565b9161068683019083821067ffffffffffffffff831117611119578392611094926106866111978639610810565b03906000f58015611114576110ab6110b091610f79565b610f5c565b936110ba8561077d565b9290919261110f6110fd6110f76110f17f53b1ae664a211872d6c12cc55b117a1995ccea2307ce22b29c64e285a3ee1ebf94610f85565b94610f85565b94610f91565b94611106610083565b91829182610faa565b0390a4565b610f68565b610594565b90506111359293506111309150610f44565b610f5c565b90565b61114190610771565b90565b906111629161115161074a565b509061115c30611138565b91611165565b90565b91600b9261117161074a565b50604051926040840152602083015281520160ff8153605560018060a01b039120169056fe608060405261001561000f6101bf565b906101e1565b61001d61002b565b610115610571823961011590f35b60405190565b601f801991011690565b634e487b7160e01b600052604160045260246000fd5b9061005b90610031565b810190811060018060401b0382111761007357604052565b61003b565b9061008b61008461002b565b9283610051565b565b600080fd5b600080fd5b60018060a01b031690565b6100ab90610097565b90565b6100b7816100a2565b036100be57565b600080fd5b905051906100d0826100ae565b565b600080fd5b600080fd5b60018060401b0381116100f8576100f4602091610031565b0190565b61003b565b60005b838110610111575050906000910152565b806020918301518185015201610100565b90929192610137610132826100dc565b610078565b9381855260208501908284011161015357610151926100fd565b565b6100d7565b9080601f830112156101765781602061017393519101610122565b90565b6100d2565b9190916040818403126101ba5761019583600083016100c3565b92602082015160018060401b0381116101b5576101b29201610158565b90565b610092565b61008d565b6101dd610686803803806101d281610078565b92833981019061017b565b9091565b906101eb91610250565b565b90565b6102046101ff61020992610097565b6101ed565b610097565b90565b610215906101f0565b90565b6102219061020c565b90565b60000190565b5190565b90565b90565b61024861024361024d92610231565b6101ed565b61022e565b90565b9061025a82610390565b816102857fbc7cd75a20ee27fd9adebab32041f755214dbc6bffa90cc0225b39da2e5c2d3b91610218565b9061028e61002b565b8061029881610224565b0390a26102a48161022a565b6102b76102b16000610234565b9161022e565b116000146102cc576102c891610467565b505b565b50506102d66103e8565b6102ca565b6102e4906100a2565b9052565b91906102fc906000602085019401906102db565b565b90565b90565b60001b90565b61031e610319610323926102fe565b610304565b610301565b90565b61034f7f360894a13ba1a3210667c828492db98dca3e2076cc3735a920a3ca505d382bbc61030a565b90565b9061036360018060a01b0391610304565b9181191691161790565b90565b9061038561038061038c92610218565b61036d565b8254610352565b9055565b803b6103a561039f6000610234565b9161022e565b146103c8576103c69060006103c06103bb610326565b610497565b01610370565b565b6103e4906000918291634c9c8ce360e01b8352600483016102e8565b0390fd5b346103fc6103f66000610234565b9161022e565b1161040357565b600063b398979f60e01b81528061041c60048201610224565b0390fd5b606090565b90610437610432836100dc565b610078565b918252565b3d6000146104595761044d3d610425565b903d6000602084013e5b565b610461610420565b90610457565b60008061049493610476610420565b508390602081019051915af49061048b61043c565b9091909161049f565b90565b90565b151590565b906104b3906104ac610420565b501561049a565b6000146104c05750610527565b6104c98261022a565b6104dc6104d66000610234565b9161022e565b148061050b575b6104eb575090565b610507906000918291639996b31560e01b8352600483016102e8565b0390fd5b50803b61052161051b6000610234565b9161022e565b146104e3565b6105308161022a565b61054361053d6000610234565b9161022e565b1160001461055357602081519101fd5b600063d6bda27560e01b81528061056c60048201610224565b0390fdfe6080604052600a6013565b6023565b600090565b6019600e565b50602060bd565b90565b60008091368280378136915af43d6000803e6000146040573d6000f35b3d6000fd5b90565b90565b60001b90565b6060605c6064926045565b604b565b6048565b90565b608e7f360894a13ba1a3210667c828492db98dca3e2076cc3735a920a3ca505d382bbc6051565b90565b60001c90565b60018060a01b031690565b60ab60af916091565b6097565b90565b60ba905460a2565b90565b60c3600e565b5060d9600060d460d06067565b60dc565b0160b2565b90565b9056fea26469706673582212208a4cb0cc9e9648eab84fe313148ea671216a43ec54db680b83222600de869a5664736f6c634300081c0033a26469706673582212208dcaa4d4495d18a1b3abd4a76dee916ae0391a321c3673da37614e49517f4bce64736f6c634300081c003360a06040523461003f57610019610014610116565b610137565b610021610044565b61203361036982396080518181816113090152611b8f015261203390f35b61004a565b60405190565b600080fd5b601f801991011690565b634e487b7160e01b600052604160045260246000fd5b906100799061004f565b810190811060018060401b0382111761009157604052565b610059565b906100a96100a2610044565b928361006f565b565b600080fd5b60018060a01b031690565b6100c4906100b0565b90565b6100d0906100bb565b90565b6100dc816100c7565b036100e357565b600080fd5b905051906100f5826100d3565b565b906020828203126101115761010e916000016100e8565b90565b6100ab565b61013461239c8038038061012981610096565b9283398101906100f7565b90565b60805261014261023a565b565b60401c90565b60ff1690565b61015c61016191610144565b61014a565b90565b61016e9054610150565b90565b60000190565b60001c90565b60018060401b031690565b61019461019991610177565b61017d565b90565b6101a69054610188565b90565b60018060401b031690565b60001b90565b906101cb60018060401b03916101b4565b9181191691161790565b90565b6101ec6101e76101f1926101a9565b6101d5565b6101a9565b90565b90565b9061020c610207610213926101d8565b6101f4565b82546101ba565b9055565b610220906101a9565b9052565b919061023890600060208501940190610217565b565b6102426102f6565b61024e60008201610164565b6102d95761025e6000820161019c565b61027661027060018060401b036101a9565b916101a9565b0361027f575b50565b61029390600060018060401b0391016101f7565b60018060401b036102d07fc7f505b2f371ae2175ee4913f4499e1f2633a7b5936321eed1cdaeb6115181d2916102c7610044565b91829182610224565b0390a13861027c565b600063f92ee8a960e01b8152806102f260048201610171565b0390fd5b6102fe610354565b90565b600090565b90565b90565b61032061031b61032592610306565b6101b4565b610309565b90565b6103517ff0c57e16840df040f15088dc2f81fe391c3923bec73e23a9662efc9c229c6a0061030c565b90565b61035c610301565b50610365610328565b9056fe60806040526004361015610015575b36610a3c57005b6100206000356100ff565b806319822f7c146100fa5780633091a46b146100f5578063426d6f6f146100f057806347e1da2a146100eb5780634a58db19146100e65780634d44560d146100e15780634f45740d146100dc5780635bde6fd6146100d75780638da5cb5b146100d2578063b0d691fe146100cd578063b61d27f6146100c8578063be13f47c146100c3578063c399ec88146100be5763d087d2880361000e57610a07565b6109d2565b61099e565b610939565b61084e565b6107bf565b61071b565b61058f565b61053c565b6104aa565b610470565b6102e2565b61029d565b6101f7565b60e01c90565b60405190565b600080fd5b600080fd5b600080fd5b600080fd5b908161012091031261012e5790565b61011a565b90565b61013f81610133565b0361014657565b600080fd5b9050359061015882610136565b565b90565b6101668161015a565b0361016d57565b600080fd5b9050359061017f8261015d565b565b90916060828403126101cf57600082013567ffffffffffffffff81116101ca576101b0846101c792850161011f565b936101be816020860161014b565b93604001610172565b90565b610115565b610110565b6101dd9061015a565b9052565b91906101f5906000602085019401906101d4565b565b346102285761022461021361020d366004610181565b91610a53565b61021b610105565b918291826101e1565b0390f35b61010b565b600091031261023857565b610110565b1c90565b90565b610254906008610259930261023d565b610241565b90565b906102679154610244565b90565b610277600160009061025c565b90565b61028390610133565b9052565b919061029b9060006020850194019061027a565b565b346102cd576102ad36600461022d565b6102c96102b861026a565b6102c0610105565b91829182610287565b0390f35b61010b565b6102df600260009061025c565b90565b34610312576102f236600461022d565b61030e6102fd6102d2565b610305610105565b91829182610287565b0390f35b61010b565b600080fd5b600080fd5b600080fd5b909182601f830112156103605781359167ffffffffffffffff831161035b57602001926020830284011161035657565b610321565b61031c565b610317565b909182601f8301121561039f5781359167ffffffffffffffff831161039a57602001926020830284011161039557565b610321565b61031c565b610317565b909182601f830112156103de5781359167ffffffffffffffff83116103d95760200192602083028401116103d457565b610321565b61031c565b610317565b9060608282031261046557600082013567ffffffffffffffff8111610460578161040e918401610326565b929093602082013567ffffffffffffffff811161045b5783610431918401610365565b929093604082013567ffffffffffffffff81116104565761045292016103a4565b9091565b610115565b610115565b610115565b610110565b60000190565b346104a55761048f6104833660046103e3565b94939093929192610c78565b610497610105565b806104a18161046a565b0390f35b61010b565b6104b536600461022d565b6104bd610e94565b6104c5610105565b806104cf8161046a565b0390f35b60018060a01b031690565b6104e7906104d3565b90565b6104f3816104de565b036104fa57565b600080fd5b9050359061050c826104ea565b565b9190604083820312610537578061052b61053492600086016104ff565b93602001610172565b90565b610110565b3461056b5761055561054f36600461050e565b90611008565b61055d610105565b806105678161046a565b0390f35b61010b565b9060208282031261058a576105879160000161014b565b90565b610110565b346105bd576105a76105a2366004610570565b6111f0565b6105af610105565b806105b98161046a565b0390f35b61010b565b600080fd5b601f801991011690565b634e487b7160e01b600052604160045260246000fd5b906105f1906105c7565b810190811067ffffffffffffffff82111761060b57604052565b6105d1565b9061062361061c610105565b92836105e7565b565b67ffffffffffffffff81116106435761063f6020916105c7565b0190565b6105d1565b90826000939282370152565b9092919261066961066482610625565b610610565b938185526020850190828401116106855761068392610648565b565b6105c2565b9080601f830112156106a8578160206106a593359101610654565b90565b610317565b91906040838203126106ee5760008301359067ffffffffffffffff82116106e9576106dd816106e693860161068a565b9360200161014b565b90565b610115565b610110565b151590565b610701906106f3565b9052565b9190610719906000602085019401906106f8565b565b3461074c576107486107376107313660046106ad565b90611294565b61073f610105565b91829182610705565b0390f35b61010b565b60018060a01b031690565b61076c906008610771930261023d565b610751565b90565b9061077f915461075c565b90565b61078d600080610774565b90565b610799906104d3565b90565b6107a590610790565b9052565b91906107bd9060006020850194019061079c565b565b346107ef576107cf36600461022d565b6107eb6107da610782565b6107e2610105565b918291826107a9565b0390f35b61010b565b90565b61080b610806610810926104d3565b6107f4565b6104d3565b90565b61081c906107f7565b90565b61082890610813565b90565b6108349061081f565b9052565b919061084c9060006020850194019061082b565b565b3461087e5761085e36600461022d565b61087a6108696112fe565b610871610105565b91829182610838565b0390f35b61010b565b61088c81610790565b0361089357565b600080fd5b905035906108a582610883565b565b909182601f830112156108e15781359167ffffffffffffffff83116108dc5760200192600183028401116108d757565b610321565b61031c565b610317565b91606083830312610934576108fe8260008501610898565b9261090c8360208301610172565b92604082013567ffffffffffffffff811161092f5761092b92016108a7565b9091565b610115565b610110565b3461096b5761095561094c3660046108e6565b9291909161132b565b61095d610105565b806109678161046a565b0390f35b61010b565b9190604083820312610999578061098d6109969260008601610898565b9360200161014b565b90565b610110565b346109cd576109b76109b1366004610970565b9061134d565b6109bf610105565b806109c98161046a565b0390f35b61010b565b34610a02576109e236600461022d565b6109fe6109ed611387565b6109f5610105565b918291826101e1565b0390f35b61010b565b34610a3757610a1736600461022d565b610a33610a22611485565b610a2a610105565b918291826101e1565b0390f35b61010b565b600080fd5b600090565b35610a508161015d565b90565b9291610a7f6020610a78610a8594610a69610a41565b50610a726115a6565b8761162d565b9501610a46565b50611722565b565b5090565b5090565b5090565b90565b610aaa610aa5610aaf92610a93565b6107f4565b61015a565b90565b60209181520190565b60007f6163636f756e743a2077726f6e67206172726179206c656e6774687300000000910152565b610af0601c602092610ab2565b610af981610abb565b0190565b610b139060208101906000818303910152610ae3565b90565b15610b1d57565b610b25610105565b62461bcd60e51b815280610b3b60048201610afd565b0390fd5b6001610b4b910161015a565b90565b634e487b7160e01b600052603260045260246000fd5b9190811015610b74576020020190565b610b4e565b35610b8381610883565b90565b9190811015610b96576020020190565b610b4e565b600080fd5b600080fd5b600080fd5b903590600160200381360303821215610bec570180359067ffffffffffffffff8211610be757602001916001820236038313610be257565b610ba5565b610ba0565b610b9b565b90821015610c0c576020610c089202810190610baa565b9091565b610b4e565b67ffffffffffffffff8111610c2f57610c2b6020916105c7565b0190565b6105d1565b90929192610c49610c4482610c11565b610610565b93818552602085019082840111610c6557610c6392610648565b565b6105c2565b610c75913691610c34565b90565b919092959495610c86611802565b610c91838590610a87565b610cad610ca7610ca2888b90610a8b565b61015a565b9161015a565b1480610dfd575b610cbd90610b16565b610cc8828290610a8f565b610cdb610cd56000610a96565b9161015a565b14600014610d69575050610cef6000610a96565b5b80610d0d610d07610d02858790610a87565b61015a565b9161015a565b1015610d6057610d5b90610d56610d2e610d2985878591610b64565b610b79565b6000610d50610d4a610d428a8d8891610bf1565b919093610a96565b92610c6a565b9161185f565b610b3f565b610cf0565b5050505090505b565b91610d78600097949297610a96565b5b80610d96610d90610d8b858790610a87565b61015a565b9161015a565b1015610df057610deb90610de6610db7610db285878591610b64565b610b79565b610dcb610dc68c898691610b86565b610a46565b610de0610dda8b8b8791610bf1565b90610c6a565b9161185f565b610b3f565b610d79565b5050505050509050610d67565b50610e09828290610a8f565b610e1c610e166000610a96565b9161015a565b148015610e29575b610cb4565b50610cbd610e38838390610a8f565b610e54610e4e610e49898c90610a8b565b61015a565b9161015a565b149050610e24565b610e6590610813565b90565b600080fd5b60e01b90565b6000910312610e7e57565b610110565b610e8b610105565b3d6000823e3d90fd5b610ea4610e9f6112fe565b61081f565b63b760faf93491909190610eb730610e5c565b90803b15610f2c57610edd600093610ee895610ed1610105565b96879586948593610e6d565b8352600483016107a9565b03925af18015610f2757610efa575b50565b610f1a9060003d8111610f20575b610f1281836105e7565b810190610e73565b38610ef7565b503d610f08565b610e83565b610e68565b90610f4391610f3e611914565b610f76565b565b610f4e906104de565b9052565b916020610f74929493610f6d60408201966000830190610f45565b01906101d4565b565b610f86610f816112fe565b61081f565b9163205c2878919092803b1561100357610fb460008094610fbf610fa8610105565b97889687958694610e6d565b845260048401610f52565b03925af18015610ffe57610fd1575b50565b610ff19060003d8111610ff7575b610fe981836105e7565b810190610e73565b38610fce565b503d610fdf565b610e83565b610e68565b9061101291610f31565b565b61102590611020611914565b611169565b565b60001b90565b61104161103c61104692610a93565b611027565b610133565b90565b60207f726f000000000000000000000000000000000000000000000000000000000000917f6163636f756e743a20636f6d6d69746d656e742063616e6e6f74206265207a6560008201520152565b6110a46022604092610ab2565b6110ad81611049565b0190565b6110c79060208101906000818303910152611097565b90565b156110d157565b6110d9610105565b62461bcd60e51b8152806110ef600482016110b1565b0390fd5b60001c90565b61110561110a916110f3565b610241565b90565b61111790546110f9565b90565b9061112760001991611027565b9181191691161790565b61113a90610133565b90565b611146906110f3565b90565b9061115e61115961116592611131565b61113d565b825461111a565b9055565b61118f8161118861118261117d600061102d565b610133565b91610133565b14156110ca565b611199600161110d565b6111a4826001611149565b906111d86111d27f255b58ae3de9903e3994af5e011f5ebd3865ab96399a575d1e053761b6a6003793611131565b91611131565b916111e1610105565b806111eb8161046a565b0390a3565b6111f990611014565b565b600090565b5190565b905090565b60005b83811061121d575050906000910152565b80602091830151818501520161120c565b61125361124a9260209261124181611200565b94858093611204565b93849101611209565b0190565b90565b61126661126b91610133565b611257565b9052565b61127f611286916020949361122e565b809261125a565b0190565b60200190565b5190565b6112c7906112a06111fb565b506112b86112ac610105565b9384926020840161126f565b602082018103825203826105e7565b6112d96112d382611290565b9161128a565b206112f56112ef6112ea600161110d565b610133565b91610133565b1490565b600090565b6113066112f9565b507f000000000000000000000000000000000000000000000000000000000000000090565b61134b936113459193929361133e611802565b9392610c6a565b9161185f565b565b9061135791611afc565b565b905051906113668261015d565b565b906020828203126113825761137f91600001611359565b90565b610110565b61138f610a41565b506113d760206113a56113a06112fe565b61081f565b6370a08231906113cc6113b730610e5c565b926113c0610105565b95869485938493610e6d565b8352600483016107a9565b03915afa90811561141c576000916113ee575b5090565b61140f915060203d8111611415575b61140781836105e7565b810190611368565b386113ea565b503d6113fd565b610e83565b61142a90610813565b90565b60018060c01b031690565b61144c61144761145192610a93565b6107f4565b61142d565b90565b61145d90611438565b9052565b91602061148392949361147c6040820196600083019061079c565b0190611454565b565b61148d610a41565b5061149e6114996112fe565b61081f565b60206335567e1a916114af30611421565b906114cd6000946114d86114c1610105565b96879586948594610e6d565b845260048401611461565b03915afa90811561151d576000916114ef575b5090565b611510915060203d8111611516575b61150881836105e7565b810190611368565b386114eb565b503d6114fe565b610e83565b60007f6163636f756e743a206e6f742066726f6d20456e747279506f696e7400000000910152565b611557601c602092610ab2565b61156081611522565b0190565b61157a906020810190600081830391015261154a565b90565b1561158457565b61158c610105565b62461bcd60e51b8152806115a260048201611564565b0390fd5b6115d1336115cb6115c56115c06115bb6112fe565b61081f565b610790565b91610790565b1461157d565b565b6115df6115e4916110f3565b610751565b90565b6115f190546115d3565b90565b90565b61160b611606611610926115f4565b6107f4565b61015a565b90565b61161d60016115f7565b90565b61162a6000610a96565b90565b61165a61165461164861166094611642610a41565b50611c03565b92610100810190610baa565b90610c6a565b90611c40565b61167b61167561167060006115e7565b610790565b91610790565b0361168b57611688611620565b90565b611693611613565b90565b61169f906107f7565b90565b6116ab90611696565b90565b6116b790610813565b90565b905090565b6116cb600080926116ba565b0190565b6116d8906116bf565b90565b906116ed6116e883610c11565b610610565b918252565b606090565b3d600014611714576117083d6116db565b903d6000602084013e5b565b61171c6116f2565b90611712565b806117366117306000610a96565b9161015a565b0361173f575b50565b6000809161175461174f336116a2565b6116ae565b9082199190611761610105565b918261176c816116cf565b0393f1506117786116f7565b503861173c565b60007f6163636f756e743a206e6f74204f776e6572206f7220456e747279506f696e74910152565b6117b360208092610ab2565b6117bc8161177f565b0190565b6117d690602081019060008183039101526117a7565b90565b156117e057565b6117e8610105565b62461bcd60e51b8152806117fe600482016117c0565b0390fd5b3361182461181e6118196118146112fe565b61081f565b610790565b91610790565b148015611837575b611835906117d9565b565b506118353361185761185161184c60006115e7565b610790565b91610790565b14905061182c565b90600092839291602082019151925af161188161187a6116f7565b91156106f3565b6118885750565b602081519101fd5b60007f6f6e6c79206f776e657200000000000000000000000000000000000000000000910152565b6118c5600a602092610ab2565b6118ce81611890565b0190565b6118e890602081019060008183039101526118b8565b90565b156118f257565b6118fa610105565b62461bcd60e51b815280611910600482016118d2565b0390fd5b3361193061192a61192560006115e7565b610790565b91610790565b148015611943575b611941906118eb565b565b506119413361196261195c61195730610e5c565b610790565b91610790565b149050611938565b61197e61197961198392610a93565b6107f4565b6104d3565b90565b61198f9061196a565b90565b60007f6163636f756e743a20616c726561647920696e697469616c697a656400000000910152565b6119c7601c602092610ab2565b6119d081611992565b0190565b6119ea90602081019060008183039101526119ba565b90565b156119f457565b6119fc610105565b62461bcd60e51b815280611a12600482016119d4565b0390fd5b60007f6163636f756e743a206f776e65722063616e6e6f74206265207a65726f000000910152565b611a4b601d602092610ab2565b611a5481611a16565b0190565b611a6e9060208101906000818303910152611a3e565b90565b15611a7857565b611a80610105565b62461bcd60e51b815280611a9660048201611a58565b0390fd5b90611aab60018060a01b0391611027565b9181191691161790565b611abe90610813565b90565b90565b90611ad9611ad4611ae092611ab5565b611ac1565b8254611a9a565b9055565b611aed906107f7565b90565b611af990611ae4565b90565b90611b2b611b0a60006115e7565b611b25611b1f611b1a6000611986565b610790565b91610790565b146119ed565b611b5182611b4a611b44611b3f6000611986565b610790565b91610790565b1415611a71565b611b7781611b70611b6a611b65600061102d565b610133565b91610133565b14156110ca565b611b82826000611ac4565b611b8d816001611149565b7f0000000000000000000000000000000000000000000000000000000000000000919091611bf9611be7611be17fcee66411d56f13f12ede17977a1523b79ee4d08c3d96a07ba1d378b83c6a093293611af0565b93611ab5565b93611bf0610105565b91829182610287565b0390a3565b600090565b611c0b611bfe565b507f19457468657265756d205369676e6564204d6573736167653a0a333200000000600052601c52603c60002090565b600090565b611c5f91611c5691611c50611c3b565b50611ca7565b90929192611db0565b90565b600090565b90565b611c7e611c79611c8392611c67565b6107f4565b61015a565b90565b611c9a611c95611c9f9261015a565b611027565b610133565b90565b600090565b919091611cb2611c3b565b50611cbb611c62565b50611cc4611bfe565b50611cce83611290565b611ce1611cdb6041611c6a565b9161015a565b14600014611d2a57611d239192611cf6611bfe565b50611cff611bfe565b50611d08611ca2565b5060208101516060604083015192015160001a909192611ef9565b9192909190565b50611d356000611986565b90611d49611d44600294611290565b611c86565b91929190565b634e487b7160e01b600052602160045260246000fd5b60041115611d6f57565b611d4f565b90611d7e82611d65565b565b611d94611d8f611d999261015a565b6107f4565b61015a565b90565b611da8611dad916110f3565b611d80565b90565b80611dc4611dbe6000611d74565b91611d74565b14600014611dd0575050565b80611de4611dde6001611d74565b91611d74565b14600014611e0957600063f645eedf60e01b815280611e056004820161046a565b0390fd5b80611e1d611e176002611d74565b91611d74565b14600014611e4d57611e49611e3183611d9c565b600091829163fce698f760e01b8352600483016101e1565b0390fd5b611e60611e5a6003611d74565b91611d74565b14611e685750565b611e849060009182916335e2f38360e21b835260048301610287565b0390fd5b90565b611e9f611e9a611ea492611e88565b6107f4565b61015a565b90565b60ff1690565b611eb690611ea7565b9052565b611ef0611ef794611ee6606094989795611edc608086019a600087019061027a565b6020850190611ead565b604083019061027a565b019061027a565b565b939293611f04611c3b565b50611f0d611c62565b50611f16611bfe565b50611f2085611d9c565b611f52611f4c7f7fffffffffffffffffffffffffffffff5d576e7357a4501ddfe92f46681b20a0611e8b565b9161015a565b11611fe65790611f7660209495600094939293611f6d610105565b94859485611eba565b838052039060015afa15611fe157611f8f600051611027565b80611fab611fa5611fa06000611986565b610790565b91610790565b14611fc357600091611fbd600061102d565b91929190565b50611fce6000611986565b600191611fdb600061102d565b91929190565b610e83565b505050611ff36000611986565b906003929192919056fea26469706673582212204f47f237e7f02fa9c78d486964228f63e4fbeae4f1270b0b9d6b6ec7acea11c464736f6c634300081c0033",
  "linkReferences": {},
  "deployedLinkReferences": {}
}